{
  "abi": [
    {
      "inputs": [
        {
          "internalType": "bytes32",
          "name": "hash",
          "type": "bytes32"
        },
        {
          "internalType": "address",
          "name": "signer",
          "type": "address"
        },
        {
          "internalType": "bytes",
          "name": "signature",
          "type": "bytes"
        }
      ],
      "name": "_verify",
      "outputs": [
        {
          "internalType": "bool",
          "name": "",
          "type": "bool"
        }
      ],
      "stateMutability": "view",
      "type": "function"
    }
  ],
  "address": "0xb42169667957e5517740b7f64ab140ac857f959b",
  "args": [],
  "solcInputHash": "0x0ba34002262c75f24ebbcd47c2a71ec7f5830be3e50c097a446a7d66537a7b5a",
  "bytecode": "0x611822610026600b82828239805160001a60731461001957fe5b30600052607381538281f3fe73000000000000000000000000000000000000000030146080604052600436106101b35760003560e01c8063998c8bbb11610103578063d124bb84116100a1578063e686be841161007b578063e686be8414610407578063eced5d691461041a578063f44730801461043a578063fca77a501461045a576101b3565b8063d124bb84146103c1578063d3dcb445146103d4578063d51b48b1146103f4576101b3565b8063ac703f5e116100dd578063ac703f5e1461035b578063c2fc97ce1461036e578063ca3f597214610381578063ce2a9901146103a1576101b3565b8063998c8bbb14610315578063a650d0e814610328578063a92e972c14610348576101b3565b8063368b6ad21161017057806377cc93ed1161014a57806377cc93ed146102af57806382f37839146102cf57806382fa4184146102ef57806397e4e8ba14610302576101b3565b8063368b6ad21461025c57806344fd6df61461027c578063589775981461029c576101b3565b80630668a84f146101b85780630c18a8b1146101da578063180ded581461020357806318d28ee9146102165780631f7c8c75146102295780631f9d0c3e1461023c575b600080fd5b8180156101c457600080fd5b506101d86101d3366004611191565b61046d565b005b6101ed6101e8366004611118565b610484565b6040516101fa9190611488565b60405180910390f35b6101ed6102113660046111c0565b61048e565b6101ed610224366004611130565b6104d0565b6101ed610237366004611118565b6104ef565b81801561024857600080fd5b506101d8610257366004611130565b6104f3565b81801561026857600080fd5b506101d86102773660046111c0565b6105db565b81801561028857600080fd5b506101d86102973660046112be565b610602565b6101ed6102aa366004611118565b610622565b6102c26102bd366004611118565b610629565b6040516101fa9190611469565b8180156102db57600080fd5b506101d86102ea366004611118565b610639565b6101ed6102fd366004611118565b610642565b6101ed6103103660046111c0565b610650565b6101ed610323366004611118565b6106b9565b61033b610336366004611286565b6106c0565b6040516101fa919061147d565b61033b61035636600461109a565b6106e5565b6101ed6103693660046112be565b61083c565b6101ed61037c3660046112be565b61085b565b81801561038d57600080fd5b506101d861039c366004611130565b61087b565b8180156103ad57600080fd5b506101d86103bc36600461115c565b610a05565b61033b6103cf366004611118565b610b22565b8180156103e057600080fd5b506101d86103ef366004611329565b610b2c565b6101ed6104023660046112be565b610b68565b61033b6104153660046111e1565b610b87565b81801561042657600080fd5b506101d86104353660046112e2565b610c41565b81801561044657600080fd5b506101d86104553660046111c0565b610c74565b6102c26104683660046111c0565b610c7c565b600891909101805460ff1916911515919091179055565b620151805b919050565b600068056bc75e2d63100000600a83900a02816104b1856201517f194201610650565b90508082116104c15760006104c5565b8082035b925050505b92915050565b6001600160a01b03166000908152600691909101602052604090205490565b5490565b6001600160a01b0381166105225760405162461bcd60e51b81526004016105199061156f565b60405180910390fd5b6001600160a01b03811630141561054b5760405162461bcd60e51b81526004016105199061169f565b6001600160a01b0381166000908152600683016020526040902054156105835760405162461bcd60e51b815260040161051990611643565b60058201546001600160a01b039081169082168114156105b55760405162461bcd60e51b815260040161051990611548565b5060059190910180546001600160a01b0319166001600160a01b03909216919091179055565b60099091018054600181810183556000928352602090922060029091020191825542910155565b6001600160e01b0319166000908152600390910160205260409020429055565b6007015490565b600501546001600160a01b031690565b80546001019055565b5068056bc75e2d6310000090565b60098201546000908190156106b25760098401545b80156106b057600085600901600183038154811061067f57fe5b9060005260206000209060020201905084816001015410156106a157506106b0565b54919091019060001901610665565b505b9392505050565b6004015490565b60058301546000906106dd9084906001600160a01b0316846106e5565b949350505050565b60006106f9836001600160a01b0316610ca9565b156107cd57604051630b135d3f60e11b906000906060906001600160a01b038716906107299085906020016113ea565b60408051601f1981840301815290829052610743916113ff565b600060405180830381855afa9150503d806000811461077e576040519150601f19603f3d011682016040523d82523d6000602084013e610783565b606091505b509150915081156107c1576000818060200190518101906107a491906110fc565b6001600160e01b031994851694169390931493506106b292505050565b600093505050506106b2565b60006107df858463ffffffff610ce216565b6001600160a01b0316846001600160a01b031614905080156108055760019150506106b2565b61080e85610e10565b9450610820858463ffffffff610ce216565b6001600160a01b0316846001600160a01b0316149150506106b2565b6001600160e01b03191660009081526001919091016020526040902090565b6001600160e01b0319166000908152600391909101602052604090205490565b6001600160a01b0381166108a15760405162461bcd60e51b8152600401610519906115d8565b60078201546001106108c55760405162461bcd60e51b81526004016105199061171f565b6001600160a01b03811660009081526006830160205260409020546108fc5760405162461bcd60e51b81526004016105199061167a565b6001600160a01b038116600090815260068301602052604081208190555b6007830154811015610a0057816001600160a01b031683600701828154811061093f57fe5b6000918252602090912001546001600160a01b031614156109f857600783018054600019810190811061096e57fe5b6000918252602090912001546007840180546001600160a01b03909216918390811061099657fe5b9060005260206000200160006101000a8154816001600160a01b0302191690836001600160a01b03160217905550826007018054806109d157fe5b600082815260209020810160001990810180546001600160a01b0319169055019055610a00565b60010161091a565b505050565b6001600160a01b038216610a2b5760405162461bcd60e51b8152600401610519906115d8565b80610a485760405162461bcd60e51b8152600401610519906116f9565b6001600160a01b038216301415610a715760405162461bcd60e51b81526004016105199061151d565b60058301546001600160a01b0383811691161415610aa15760405162461bcd60e51b8152600401610519906116cf565b6001600160a01b038216600090815260068401602052604090205415610ad95760405162461bcd60e51b815260040161051990611756565b6001600160a01b039091166000818152600684016020908152604082209390935560079093018054600181018255908452919092200180546001600160a01b0319169091179055565b6008015460ff1690565b6001600160e01b03198316600090815260028501602090815260409091208381558251610b6192600190920191840190610f3f565b5050505050565b6001600160e01b03191660009081526002919091016020526040902090565b6000610b9282610e40565b15610b9f575060006106b2565b60005b8251811015610c36576060838281518110610bb957fe5b602090810291909101015190506000805b6007880154811015610c1a57610c0487896007018381548110610be957fe5b6000918252602090912001546001600160a01b0316856106e5565b15610c125760019150610c1a565b600101610bca565b5080610c2c57600093505050506106b2565b5050600101610ba2565b506001949350505050565b6001600160e01b0319929092166000908152600193840160205260409020805460ff191691151591909117815590910155565b600490910155565b6000826007018281548110610c8d57fe5b6000918252602090912001546001600160a01b03169392505050565b6000813f7fc5d2460186f7233c927e7db2dcc703c0e500b653ca82273b7bfad8045d85a4708181148015906106dd575050151592915050565b60008151604114610d055760405162461bcd60e51b8152600401610519906114e6565b60208201516040830151606084015160001a7f7fffffffffffffffffffffffffffffff5d576e7357a4501ddfe92f46681b20a0821115610d575760405162461bcd60e51b815260040161051990611596565b8060ff16601b14158015610d6f57508060ff16601c14155b15610d8c5760405162461bcd60e51b815260040161051990611601565b600060018783868660405160008152602001604052604051610db19493929190611491565b6020604051602081039080840390855afa158015610dd3573d6000803e3d6000fd5b5050604051601f1901519150506001600160a01b038116610e065760405162461bcd60e51b8152600401610519906114af565b9695505050505050565b600081604051602001610e239190611438565b604051602081830303815290604052805190602001209050919050565b60006060825167ffffffffffffffff81118015610e5c57600080fd5b50604051908082528060200260200182016040528015610e86578160200160208202803683370190505b50905060005b8351811015610ecf57838181518110610ea157fe5b602002602001015180519060200120828281518110610ebc57fe5b6020908102919091010152600101610e8c565b5060005b8151811015610f3557600181015b8251811015610f2c57828181518110610ef657fe5b6020026020010151838381518110610f0a57fe5b60200260200101511415610f245760019350505050610489565b600101610ee1565b50600101610ed3565b5060009392505050565b82805482825590600052602060002090600701600890048101928215610fdb5791602002820160005b83821115610fa957835183826101000a81548163ffffffff021916908360e01c02179055509260200192600401602081600301049283019260010302610f68565b8015610fd95782816101000a81549063ffffffff0219169055600401602081600301049283019260010302610fa9565b505b50610fe7929150610feb565b5090565b61100c91905b80821115610fe757805463ffffffff19168155600101610ff1565b90565b80356001600160a01b03811681146104ca57600080fd5b80356104ca816117d6565b600082601f830112611041578081fd5b813567ffffffffffffffff811115611057578182fd5b61106a601f8201601f191660200161177e565b915080825283602082850101111561108157600080fd5b8060208401602084013760009082016020015292915050565b6000806000606084860312156110ae578283fd5b8335925060208401356001600160a01b03811681146110cb578283fd5b9150604084013567ffffffffffffffff8111156110e6578182fd5b6110f286828701611031565b9150509250925092565b60006020828403121561110d578081fd5b81516106b2816117d6565b600060208284031215611129578081fd5b5035919050565b60008060408385031215611142578182fd5b82359150611153846020850161100f565b90509250929050565b600080600060608486031215611170578283fd5b83359250611181856020860161100f565b9150604084013590509250925092565b600080604083850312156111a3578182fd5b8235915060208301356111b5816117c5565b809150509250929050565b600080604083850312156111d2578182fd5b50508035926020909101359150565b6000806000606084860312156111f5578283fd5b833592506020808501359250604085013567ffffffffffffffff81111561121a578283fd5b80860187601f82011261122b578384fd5b8035915061124061123b836117a5565b61177e565b82815283810190828501865b85811015611275576112638c888435880101611031565b8452928601929086019060010161124c565b505080955050505050509250925092565b60008060006060848603121561129a578283fd5b8335925060208401359150604084013567ffffffffffffffff8111156110e6578182fd5b600080604083850312156112d0578182fd5b8235915060208301356111b5816117d6565b600080600080608085870312156112f7578081fd5b843593506020850135611309816117d6565b92506040850135611319816117c5565b9396929550929360600135925050565b6000806000806080858703121561133e578182fd5b84359350602080860135611351816117d6565b935060408601359250606086013567ffffffffffffffff811115611373578283fd5b80870188601f820112611384578384fd5b8035915061139461123b836117a5565b82815283810190828501858502840186018c10156113b0578687fd5b8693505b848410156113da576113c68c82611026565b8352600193909301929185019185016113b4565b50979a9699509497505050505050565b6001600160e01b031991909116815260040190565b60008251815b8181101561141f5760208186018101518583015201611405565b8181111561142d5782828501525b509190910192915050565b7f19457468657265756d205369676e6564204d6573736167653a0a3332000000008152601c810191909152603c0190565b6001600160a01b0391909116815260200190565b901515815260200190565b90815260200190565b93845260ff9290921660208401526040830152606082015260800190565b60208082526018908201527f45434453413a20696e76616c6964207369676e61747572650000000000000000604082015260600190565b6020808252601f908201527f45434453413a20696e76616c6964207369676e6174757265206c656e67746800604082015260600190565b60208082526011908201527018d85b9b9bdd0b5859190b5dd85b1b195d607a1b604082015260600190565b6020808252600d908201526c30b63932b0b23c96b7bbb732b960991b604082015260600190565b6020808252600d908201526c34b73b30b634b216b7bbb732b960991b604082015260600190565b60208082526022908201527f45434453413a20696e76616c6964207369676e6174757265202773272076616c604082015261756560f01b606082015260800190565b6020808252600f908201526e696e76616c69642d6164647265737360881b604082015260600190565b60208082526022908201527f45434453413a20696e76616c6964207369676e6174757265202776272076616c604082015261756560f01b606082015260800190565b60208082526017908201527f7769746e6573732d63616e6e6f742d62652d6f776e6572000000000000000000604082015260600190565b6020808252600b908201526a6e6f742d7769746e65737360a81b604082015260600190565b6020808252601690820152753bb0b63632ba16b1b0b73737ba16b13296b7bbb732b960511b604082015260600190565b60208082526010908201526f31b0b73737ba16b0b23216b7bbb732b960811b604082015260600190565b6020808252600c908201526b696e76616c69642d6e616d6560a01b604082015260600190565b6020808252601d908201527f61742d6c656173742d6f6e652d7769746e6573732d7265717569726564000000604082015260600190565b6020808252600e908201526d7769746e6573732d65786973747360901b604082015260600190565b60405181810167ffffffffffffffff8111828210171561179d57600080fd5b604052919050565b600067ffffffffffffffff8211156117bb578081fd5b5060209081020190565b80151581146117d357600080fd5b50565b6001600160e01b0319811681146117d357600080fdfea2646970667358221220af5901ff7fe7ceb6d4e7011fb1f59a0ae8f389d481a48b11d5783dcd54a88d7c64736f6c63430006080033",
  "libraries": {},
  "devdoc": {
    "methods": {}
  },
  "userdoc": {
    "methods": {
      "cumulativeSpendingInUSD(Storage.Data storage,uint256)": {
        "notice": "Cumulative value spent in USD after 'fromTimestamp' g"
      },
      "lastExecutionTime(Storage.Data storage,bytes4)": {
        "notice": "Last executed timestamp that the method of 'selector' called"
      },
      "minimumTransferLimitInUSD(Storage.Data storage)": {
        "notice": "How much an owner can spend with 0 witness     * For each signature of a witness is offered, limit is multiplied by 10"
      },
      "owner(Storage.Data storage)": {
        "notice": "The owner"
      },
      "transferCapacityInUSD(Storage.Data storage,uint256)": {
        "notice": "Transfer capacity available in USD     * 10**18 = 1 USD"
      },
      "witnessNames(Storage.Data storage,address)": {
        "notice": "Witness names for their addresses"
      },
      "witnesses(Storage.Data storage,uint256)": {
        "notice": "Witness addresses"
      }
    }
  },
  "storageLayout": {
    "storage": [],
    "types": null
  },
  "gasEstimates": {
    "creation": {
      "codeDepositCost": "1235600",
      "executionCost": "1313",
      "totalCost": "1236913"
    },
    "external": {
      "_verify(bytes32,address,bytes)": "infinite",
      "addSpending(Storage.Data storage,uint256)": "61217",
      "addWitness(Storage.Data storage,address,bytes32)": "64174",
      "areValidWitnessSignatures(Storage.Data storage,bytes32,bytes[])": "infinite",
      "cumulativeSpendingInUSD(Storage.Data storage,uint256)": "infinite",
      "incrementNonce(Storage.Data storage)": "21109",
      "isValidOwnerSignature(Storage.Data storage,bytes32,bytes)": "infinite",
      "label(Storage.Data storage)": "1138",
      "lastExecutionTime(Storage.Data storage,bytes4)": "1364",
      "locked(Storage.Data storage)": "1149",
      "minimumTransferLimitInUSD(Storage.Data storage)": "380",
      "nonce(Storage.Data storage)": "1198",
      "numberOfWitnesses(Storage.Data storage)": "1182",
      "owner(Storage.Data storage)": "1179",
      "removeWitness(Storage.Data storage,address)": "infinite",
      "securityPeriod(Storage.Data storage,bytes4)": "586",
      "setLabel(Storage.Data storage,bytes32)": "20353",
      "setLocked(Storage.Data storage,bool)": "21199",
      "setSecurityPeriod(Storage.Data storage,bytes4,uint256,bytes4[])": "infinite",
      "setSigningRequirements(Storage.Data storage,bytes4,bool,uint256)": "infinite",
      "signingRequirements(Storage.Data storage,bytes4)": "542",
      "transferCapacityInUSD(Storage.Data storage,uint256)": "infinite",
      "transferCapacityResetPeriod(Storage.Data storage)": "341",
      "transferOwnership(Storage.Data storage,address)": "23212",
      "updateLastExecutionTime(Storage.Data storage,bytes4)": "20511",
      "witnessNames(Storage.Data storage,address)": "1387",
      "witnesses(Storage.Data storage,uint256)": "2168"
    },
    "internal": {
      "_duplicate(bytes memory[] memory)": "infinite"
    }
  }
}