{
  "abi": [
    {
      "anonymous": false,
      "inputs": [
        {
          "indexed": true,
          "internalType": "address",
          "name": "previousOwner",
          "type": "address"
        },
        {
          "indexed": true,
          "internalType": "address",
          "name": "newOwner",
          "type": "address"
        }
      ],
      "name": "OwnershipTransferred",
      "type": "event"
    },
    {
      "inputs": [
        {
          "internalType": "address",
          "name": "owner",
          "type": "address"
        }
      ],
      "name": "initialize",
      "outputs": [],
      "stateMutability": "nonpayable",
      "type": "function"
    },
    {
      "inputs": [],
      "name": "initialized",
      "outputs": [
        {
          "internalType": "bool",
          "name": "",
          "type": "bool"
        }
      ],
      "stateMutability": "view",
      "type": "function"
    },
    {
      "inputs": [],
      "name": "latest",
      "outputs": [
        {
          "internalType": "bytes32",
          "name": "versionName",
          "type": "bytes32"
        },
        {
          "internalType": "address",
          "name": "addr",
          "type": "address"
        }
      ],
      "stateMutability": "view",
      "type": "function"
    },
    {
      "inputs": [],
      "name": "owner",
      "outputs": [
        {
          "internalType": "address",
          "name": "",
          "type": "address"
        }
      ],
      "stateMutability": "view",
      "type": "function"
    },
    {
      "inputs": [
        {
          "internalType": "address",
          "name": "addr",
          "type": "address"
        }
      ],
      "name": "queryWithAddress",
      "outputs": [
        {
          "internalType": "bytes32",
          "name": "versionName",
          "type": "bytes32"
        }
      ],
      "stateMutability": "view",
      "type": "function"
    },
    {
      "inputs": [
        {
          "internalType": "bytes32",
          "name": "versionName",
          "type": "bytes32"
        }
      ],
      "name": "queryWithVersionName",
      "outputs": [
        {
          "internalType": "address",
          "name": "add",
          "type": "address"
        }
      ],
      "stateMutability": "view",
      "type": "function"
    },
    {
      "inputs": [
        {
          "internalType": "bytes32",
          "name": "versionName",
          "type": "bytes32"
        },
        {
          "internalType": "address",
          "name": "addr",
          "type": "address"
        }
      ],
      "name": "register",
      "outputs": [],
      "stateMutability": "nonpayable",
      "type": "function"
    },
    {
      "inputs": [],
      "name": "renounceOwnership",
      "outputs": [],
      "stateMutability": "nonpayable",
      "type": "function"
    },
    {
      "inputs": [
        {
          "internalType": "address",
          "name": "newOwner",
          "type": "address"
        }
      ],
      "name": "transferOwnership",
      "outputs": [],
      "stateMutability": "nonpayable",
      "type": "function"
    },
    {
      "inputs": [],
      "name": "versionNames",
      "outputs": [
        {
          "internalType": "bytes32[]",
          "name": "",
          "type": "bytes32[]"
        }
      ],
      "stateMutability": "nonpayable",
      "type": "function"
    }
  ],
  "address": "0xd20d604e1893b072087210773df80016b7b0f642",
  "args": [],
  "solcInputHash": "0x0ba34002262c75f24ebbcd47c2a71ec7f5830be3e50c097a446a7d66537a7b5a",
  "bytecode": "0x608060405234801561001057600080fd5b5061085d806100206000396000f3fe608060405234801561001057600080fd5b506004361061009e5760003560e01c80638da5cb5b116100665780638da5cb5b14610183578063b60ff4a01461018b578063c4d66de8146101c3578063d22057a9146101e9578063f2fde38b146102155761009e565b8063158ef93e146100a35780631e1f8692146100bf5780634603de5d1461011757806352bfe78914610150578063715018a614610179575b600080fd5b6100ab61023b565b604080519115158252519081900360200190f35b6100c7610244565b60408051602080825283518183015283519192839290830191858101910280838360005b838110156101035781810151838201526020016100eb565b505050509050019250505060405180910390f35b6101346004803603602081101561012d57600080fd5b50356102e0565b604080516001600160a01b039092168252519081900360200190f35b610158610343565b604080519283526001600160a01b0390911660208301528051918290030190f35b61018161039d565b005b61013461044a565b6101b1600480360360208110156101a157600080fd5b50356001600160a01b031661045f565b60408051918252519081900360200190f35b610181600480360360208110156101d957600080fd5b50356001600160a01b03166104ba565b610181600480360360408110156101ff57600080fd5b50803590602001356001600160a01b0316610564565b6101816004803603602081101561022b57600080fd5b50356001600160a01b03166106eb565b60005460ff1681565b600154606090819067ffffffffffffffff8111801561026257600080fd5b5060405190808252806020026020018201604052801561028c578160200160208202803683370190505b50905060005b6001548110156102da57600181815481106102a957fe5b9060005260206000209060020201600001548282815181106102c757fe5b6020908102919091010152600101610292565b50905090565b6000805b600154811015610338576000600182815481106102fd57fe5b90600052602060002090600202019050838160000154141561032f57600101546001600160a01b0316915061033e9050565b506001016102e4565b50600090505b919050565b6001546000908190801561039057600060018083038154811061036257fe5b6000918252602090912060029091020180546001909101549094506001600160a01b03169250610399915050565b50600091508190505b9091565b6000546201000090046001600160a01b031633146103f9576040805162461bcd60e51b815260206004820152601460248201527336b9b396b9b2b73232b916b737ba16b7bbb732b960611b604482015290519081900360640190fd5b60008054604051620100009091046001600160a01b0316907f8be0079c531659141344cd1fd0a4f28419497f9722a3daafe3b4186f6b6457e0908390a36000805462010000600160b01b0319169055565b6000546201000090046001600160a01b031690565b6000805b6001548110156103385760006001828154811061047c57fe5b6000918252602090912060029091020160018101549091506001600160a01b03858116911614156104b15754915061033e9050565b50600101610463565b600054610100900460ff16806104d3575060005460ff16155b61051a576040805162461bcd60e51b8152602060048201526013602482015272185b1c9958591e4b5a5b9a5d1a585b1a5e9959606a1b604482015290519081900360640190fd5b600054610100900460ff16158015610545576000805460ff1961ff0019909116610100171660011790555b61054e826107fd565b8015610560576000805461ff00191690555b5050565b6000546201000090046001600160a01b031633146105c0576040805162461bcd60e51b815260206004820152601460248201527336b9b396b9b2b73232b916b737ba16b7bbb732b960611b604482015290519081900360640190fd5b81610612576040805162461bcd60e51b815260206004820152601960248201527f76657273696f6e2d6d7573742d6e6f742d62652d656d70747900000000000000604482015290519081900360640190fd5b6001600160a01b03811661066d576040805162461bcd60e51b815260206004820152601860248201527f616464726573732d6d7573742d6e6f742d62652d7a65726f0000000000000000604482015290519081900360640190fd5b6001805480820182556000919091526002027fb10e2d527612073b26eecdfd717e6a320cf44b4afac2b0732d9fcbe2b7fa0cf68101929092557fb10e2d527612073b26eecdfd717e6a320cf44b4afac2b0732d9fcbe2b7fa0cf790910180546001600160a01b039092166001600160a01b0319909216919091179055565b6000546201000090046001600160a01b03163314610747576040805162461bcd60e51b815260206004820152601460248201527336b9b396b9b2b73232b916b737ba16b7bbb732b960611b604482015290519081900360640190fd5b6001600160a01b038116610794576040805162461bcd60e51b815260206004820152600f60248201526e696e76616c69642d6164647265737360881b604482015290519081900360640190fd5b600080546040516001600160a01b03808516936201000090930416917f8be0079c531659141344cd1fd0a4f28419497f9722a3daafe3b4186f6b6457e091a3600080546001600160a01b03909216620100000262010000600160b01b0319909216919091179055565b600080546001600160a01b03909216620100000262010000600160b01b031990921691909117905556fea2646970667358221220ad48061d65c9a79b71ff3b445bfe912fb8b2e9283d9037cbb1f711927caff00e64736f6c63430006080033",
  "libraries": {},
  "devdoc": {
    "methods": {}
  },
  "userdoc": {
    "methods": {}
  },
  "storageLayout": {
    "storage": [
      {
        "astId": 3434,
        "contract": "contracts/core/WalletRegistry.sol:WalletRegistry",
        "label": "initialized",
        "offset": 0,
        "slot": "0",
        "type": "t_bool"
      },
      {
        "astId": 3436,
        "contract": "contracts/core/WalletRegistry.sol:WalletRegistry",
        "label": "initializing",
        "offset": 1,
        "slot": "0",
        "type": "t_bool"
      },
      {
        "astId": 3476,
        "contract": "contracts/core/WalletRegistry.sol:WalletRegistry",
        "label": "_owner",
        "offset": 2,
        "slot": "0",
        "type": "t_address"
      },
      {
        "astId": 2639,
        "contract": "contracts/core/WalletRegistry.sol:WalletRegistry",
        "label": "_wallets",
        "offset": 0,
        "slot": "1",
        "type": "t_array(t_struct(Implementation)2636_storage)dyn_storage"
      }
    ],
    "types": {
      "t_address": {
        "encoding": "inplace",
        "label": "address",
        "numberOfBytes": "20"
      },
      "t_array(t_struct(Implementation)2636_storage)dyn_storage": {
        "base": "t_struct(Implementation)2636_storage",
        "encoding": "dynamic_array",
        "label": "struct WalletRegistry.Implementation[]",
        "numberOfBytes": "32"
      },
      "t_bool": {
        "encoding": "inplace",
        "label": "bool",
        "numberOfBytes": "1"
      },
      "t_bytes32": {
        "encoding": "inplace",
        "label": "bytes32",
        "numberOfBytes": "32"
      },
      "t_struct(Implementation)2636_storage": {
        "encoding": "inplace",
        "label": "struct WalletRegistry.Implementation",
        "members": [
          {
            "astId": 2633,
            "contract": "contracts/core/WalletRegistry.sol:WalletRegistry",
            "label": "versionName",
            "offset": 0,
            "slot": "0",
            "type": "t_bytes32"
          },
          {
            "astId": 2635,
            "contract": "contracts/core/WalletRegistry.sol:WalletRegistry",
            "label": "addr",
            "offset": 0,
            "slot": "1",
            "type": "t_address"
          }
        ],
        "numberOfBytes": "64"
      }
    }
  },
  "gasEstimates": {
    "creation": {
      "codeDepositCost": "428200",
      "executionCost": "461",
      "totalCost": "428661"
    },
    "external": {
      "initialize(address)": "65350",
      "initialized()": "1011",
      "latest()": "3715",
      "owner()": "1048",
      "queryWithAddress(address)": "infinite",
      "queryWithVersionName(bytes32)": "infinite",
      "register(bytes32,address)": "62928",
      "renounceOwnership()": "24273",
      "transferOwnership(address)": "24423",
      "versionNames()": "infinite"
    }
  }
}