{
  "abi": [
    {
      "inputs": [
        {
          "internalType": "address",
          "name": "token",
          "type": "address"
        },
        {
          "internalType": "uint256",
          "name": "amount",
          "type": "uint256"
        }
      ],
      "name": "erc20PriceInETH",
      "outputs": [
        {
          "internalType": "uint256",
          "name": "",
          "type": "uint256"
        }
      ],
      "stateMutability": "view",
      "type": "function"
    },
    {
      "inputs": [
        {
          "internalType": "address",
          "name": "token",
          "type": "address"
        },
        {
          "internalType": "uint256",
          "name": "amount",
          "type": "uint256"
        }
      ],
      "name": "erc20PriceInUSD",
      "outputs": [
        {
          "internalType": "uint256",
          "name": "",
          "type": "uint256"
        }
      ],
      "stateMutability": "view",
      "type": "function"
    },
    {
      "inputs": [
        {
          "internalType": "uint256",
          "name": "amount",
          "type": "uint256"
        }
      ],
      "name": "ethPriceInUSD",
      "outputs": [
        {
          "internalType": "uint256",
          "name": "",
          "type": "uint256"
        }
      ],
      "stateMutability": "view",
      "type": "function"
    },
    {
      "inputs": [
        {
          "internalType": "address",
          "name": "makerPriceFeed",
          "type": "address"
        }
      ],
      "name": "initialize",
      "outputs": [],
      "stateMutability": "nonpayable",
      "type": "function"
    },
    {
      "inputs": [],
      "name": "initialized",
      "outputs": [
        {
          "internalType": "bool",
          "name": "",
          "type": "bool"
        }
      ],
      "stateMutability": "view",
      "type": "function"
    }
  ],
  "address": "0xb8f77e5b60773798411fcf122966e3682243b9d1",
  "args": [],
  "solcInputHash": "0x0ba34002262c75f24ebbcd47c2a71ec7f5830be3e50c097a446a7d66537a7b5a",
  "bytecode": "0x608060405234801561001057600080fd5b506109da806100206000396000f3fe608060405234801561001057600080fd5b50600436106100575760003560e01c8063158ef93e1461005c5780634225b70314610078578063751c1e33146100b6578063c4d66de8146100d3578063eb488a77146100fb575b600080fd5b610064610127565b604080519115158252519081900360200190f35b6100a46004803603604081101561008e57600080fd5b506001600160a01b038135169060200135610130565b60408051918252519081900360200190f35b6100a4600480360360208110156100cc57600080fd5b5035610193565b6100f9600480360360208110156100e957600080fd5b50356001600160a01b0316610241565b005b6100a46004803603604081101561011157600080fd5b506001600160a01b038135169060200135610420565b60005460ff1681565b6000805460015482918291610159916001600160a01b036201000090910481169188911661046f565b9150915060008211801561016d5750600081115b156101865761017d8483836105e6565b9250505061018d565b6000925050505b92915050565b600080600260009054906101000a90046001600160a01b03166001600160a01b03166357de26a46040518163ffffffff1660e01b815260040160206040518083038186803b1580156101e457600080fd5b505afa1580156101f8573d6000803e3d6000fd5b505050506040513d602081101561020e57600080fd5b5051905061023a670de0b6b3a764000061022e838663ffffffff6106ad16565b9063ffffffff61070616565b9392505050565b600054610100900460ff168061025a575060005460ff16155b6102a1576040805162461bcd60e51b8152602060048201526013602482015272185b1c9958591e4b5a5b9a5d1a585b1a5e9959606a1b604482015290519081900360640190fd5b600054610100900460ff161580156102cc576000805460ff1961ff0019909116610100171660011790555b600280546001600160a01b0319166001600160a01b0384161790556040805163c45a015560e01b81529051737a250d5630b4cf539739df2c5dacb4c659f2488d91829163c45a015591600480820192602092909190829003018186803b15801561033557600080fd5b505afa158015610349573d6000803e3d6000fd5b505050506040513d602081101561035f57600080fd5b50516000805462010000600160b01b031916620100006001600160a01b0393841602179055604080516315ab88c960e31b815290519183169163ad5c464891600480820192602092909190829003018186803b1580156103be57600080fd5b505afa1580156103d2573d6000803e3d6000fd5b505050506040513d60208110156103e857600080fd5b5051600180546001600160a01b0319166001600160a01b0390921691909117905550801561041c576000805461ff00191690555b5050565b600080610434670de0b6b3a7640000610193565b905060006104428585610130565b9050801561018657610466670de0b6b3a764000061022e848463ffffffff6106ad16565b95945050505050565b600080600061047e8585610748565b509050600061048e878787610821565b60408051600481526024810182526020810180516001600160e01b0316630240bc6b60e21b178152915181519394506000936060936001600160a01b0387169392918291908083835b602083106104f65780518252601f1990920191602091820191016104d7565b6001836020036101000a038019825116818451168082178552505050505050905001915050600060405180830381855afa9150503d8060008114610556576040519150601f19603f3d011682016040523d82523d6000602084013e61055b565b606091505b509150915081156105c85760008082806020019051606081101561057e57600080fd5b50805160209091015190925090506001600160a01b038a8116908716146105a65780826105a9565b81815b6dffffffffffffffffffffffffffff91821699501696506105d9915050565b50600094508493506105de92505050565b505050505b935093915050565b6000808411610632576040805162461bcd60e51b81526020600482015260136024820152721a5b9cdd59999a58da595b9d0b585b5bdd5b9d606a1b604482015290519081900360640190fd5b6000831180156106425750600082115b61068c576040805162461bcd60e51b8152602060048201526016602482015275696e73756666696369656e742d6c697175696469747960501b604482015290519081900360640190fd5b8261069d858463ffffffff6106ad16565b816106a457fe5b04949350505050565b6000826106bc5750600061018d565b828202828482816106c957fe5b041461023a5760405162461bcd60e51b81526004018080602001828103825260218152602001806109846021913960400191505060405180910390fd5b600061023a83836040518060400160405280601a81526020017f536166654d6174683a206469766973696f6e206279207a65726f0000000000008152506108e1565b600080826001600160a01b0316846001600160a01b031614156107a8576040805162461bcd60e51b81526020600482015260136024820152726964656e746963616c2d61646472657373657360681b604482015290519081900360640190fd5b826001600160a01b0316846001600160a01b0316106107c85782846107cb565b83835b90925090506001600160a01b03821661081a576040805162461bcd60e51b815260206004820152600c60248201526b7a65726f2d6164647265737360a01b604482015290519081900360640190fd5b9250929050565b60008060006108308585610748565b604080516bffffffffffffffffffffffff19606094851b811660208084019190915293851b81166034830152825160288184030181526048830184528051908501206001600160f81b031960688401529a90941b9093166069840152607d8301989098527f96e8ac4277198ff8b6f785478aa9a39f403cb768dd02cbee326c3e7da348845f609d808401919091528851808403909101815260bd909201909752805196019590952095945050505050565b6000818361096d5760405162461bcd60e51b81526004018080602001828103825283818151815260200191508051906020019080838360005b8381101561093257818101518382015260200161091a565b50505050905090810190601f16801561095f5780820380516001836020036101000a031916815260200191505b509250505060405180910390fd5b50600083858161097957fe5b049594505050505056fe536166654d6174683a206d756c7469706c69636174696f6e206f766572666c6f77a2646970667358221220f557453bc57cab894c386c3b337abeb5c728a59f1b80c76e97750fa27d2e46d064736f6c63430006080033",
  "libraries": {},
  "devdoc": {
    "methods": {}
  },
  "userdoc": {
    "methods": {}
  },
  "storageLayout": {
    "storage": [
      {
        "astId": 3434,
        "contract": "contracts/core/PriceFeed.sol:PriceFeed",
        "label": "initialized",
        "offset": 0,
        "slot": "0",
        "type": "t_bool"
      },
      {
        "astId": 3436,
        "contract": "contracts/core/PriceFeed.sol:PriceFeed",
        "label": "initializing",
        "offset": 1,
        "slot": "0",
        "type": "t_bool"
      },
      {
        "astId": 2474,
        "contract": "contracts/core/PriceFeed.sol:PriceFeed",
        "label": "_uniswapFactory",
        "offset": 2,
        "slot": "0",
        "type": "t_address"
      },
      {
        "astId": 2476,
        "contract": "contracts/core/PriceFeed.sol:PriceFeed",
        "label": "_weth",
        "offset": 0,
        "slot": "1",
        "type": "t_address"
      },
      {
        "astId": 2478,
        "contract": "contracts/core/PriceFeed.sol:PriceFeed",
        "label": "_makerPriceFeed",
        "offset": 0,
        "slot": "2",
        "type": "t_address"
      }
    ],
    "types": {
      "t_address": {
        "encoding": "inplace",
        "label": "address",
        "numberOfBytes": "20"
      },
      "t_bool": {
        "encoding": "inplace",
        "label": "bool",
        "numberOfBytes": "1"
      }
    }
  },
  "gasEstimates": {
    "creation": {
      "codeDepositCost": "504400",
      "executionCost": "537",
      "totalCost": "504937"
    },
    "external": {
      "erc20PriceInETH(address,uint256)": "infinite",
      "erc20PriceInUSD(address,uint256)": "infinite",
      "ethPriceInUSD(uint256)": "infinite",
      "initialize(address)": "infinite",
      "initialized()": "988"
    }
  }
}