{
  "abi": [
    {
      "anonymous": false,
      "inputs": [
        {
          "indexed": true,
          "internalType": "address",
          "name": "to",
          "type": "address"
        },
        {
          "indexed": true,
          "internalType": "uint256",
          "name": "value",
          "type": "uint256"
        }
      ],
      "name": "ETHTransferred",
      "type": "event"
    },
    {
      "anonymous": false,
      "inputs": [
        {
          "indexed": true,
          "internalType": "address",
          "name": "target",
          "type": "address"
        },
        {
          "indexed": false,
          "internalType": "uint256",
          "name": "value",
          "type": "uint256"
        },
        {
          "indexed": false,
          "internalType": "bytes",
          "name": "data",
          "type": "bytes"
        }
      ],
      "name": "Executed",
      "type": "event"
    },
    {
      "anonymous": false,
      "inputs": [],
      "name": "Initialized",
      "type": "event"
    },
    {
      "anonymous": false,
      "inputs": [],
      "name": "Locked",
      "type": "event"
    },
    {
      "anonymous": false,
      "inputs": [
        {
          "indexed": true,
          "internalType": "address",
          "name": "previousOwner",
          "type": "address"
        },
        {
          "indexed": true,
          "internalType": "address",
          "name": "newOwner",
          "type": "address"
        }
      ],
      "name": "OwnershipTransferred",
      "type": "event"
    },
    {
      "anonymous": false,
      "inputs": [
        {
          "indexed": false,
          "internalType": "uint256",
          "name": "valueInUSD",
          "type": "uint256"
        },
        {
          "indexed": false,
          "internalType": "uint256",
          "name": "timestamp",
          "type": "uint256"
        }
      ],
      "name": "Spent",
      "type": "event"
    },
    {
      "anonymous": false,
      "inputs": [],
      "name": "Unlocked",
      "type": "event"
    },
    {
      "anonymous": false,
      "inputs": [
        {
          "indexed": false,
          "internalType": "address",
          "name": "implementation",
          "type": "address"
        }
      ],
      "name": "Upgraded",
      "type": "event"
    },
    {
      "anonymous": false,
      "inputs": [
        {
          "indexed": true,
          "internalType": "address",
          "name": "addr",
          "type": "address"
        },
        {
          "indexed": false,
          "internalType": "bytes32",
          "name": "name",
          "type": "bytes32"
        }
      ],
      "name": "WitnessAdded",
      "type": "event"
    },
    {
      "anonymous": false,
      "inputs": [
        {
          "indexed": true,
          "internalType": "address",
          "name": "addr",
          "type": "address"
        }
      ],
      "name": "WitnessRemoved",
      "type": "event"
    },
    {
      "inputs": [
        {
          "internalType": "address",
          "name": "addr",
          "type": "address"
        },
        {
          "internalType": "bytes32",
          "name": "name",
          "type": "bytes32"
        },
        {
          "components": [
            {
              "internalType": "bytes",
              "name": "owner",
              "type": "bytes"
            },
            {
              "internalType": "bytes[]",
              "name": "witnesses",
              "type": "bytes[]"
            }
          ],
          "internalType": "struct Storage.Signatures",
          "name": "signatures",
          "type": "tuple"
        }
      ],
      "name": "addWitness",
      "outputs": [],
      "stateMutability": "nonpayable",
      "type": "function"
    },
    {
      "inputs": [
        {
          "internalType": "address",
          "name": "addr",
          "type": "address"
        },
        {
          "internalType": "bytes32",
          "name": "name",
          "type": "bytes32"
        }
      ],
      "name": "addWitnessHash",
      "outputs": [
        {
          "internalType": "bytes32",
          "name": "",
          "type": "bytes32"
        }
      ],
      "stateMutability": "view",
      "type": "function"
    },
    {
      "inputs": [
        {
          "internalType": "bytes32",
          "name": "hash",
          "type": "bytes32"
        },
        {
          "internalType": "bytes[]",
          "name": "signatures",
          "type": "bytes[]"
        }
      ],
      "name": "areValidWitnessSignatures",
      "outputs": [
        {
          "internalType": "bool",
          "name": "",
          "type": "bool"
        }
      ],
      "stateMutability": "view",
      "type": "function"
    },
    {
      "inputs": [
        {
          "internalType": "uint256",
          "name": "fromTimestamp",
          "type": "uint256"
        }
      ],
      "name": "cumulativeSpendingInUSD",
      "outputs": [
        {
          "internalType": "uint256",
          "name": "",
          "type": "uint256"
        }
      ],
      "stateMutability": "view",
      "type": "function"
    },
    {
      "inputs": [
        {
          "internalType": "address[]",
          "name": "targets",
          "type": "address[]"
        },
        {
          "internalType": "uint256[]",
          "name": "values",
          "type": "uint256[]"
        },
        {
          "internalType": "bytes[]",
          "name": "data",
          "type": "bytes[]"
        },
        {
          "components": [
            {
              "internalType": "bytes",
              "name": "owner",
              "type": "bytes"
            },
            {
              "internalType": "bytes[]",
              "name": "witnesses",
              "type": "bytes[]"
            }
          ],
          "internalType": "struct Storage.Signatures",
          "name": "signatures",
          "type": "tuple"
        }
      ],
      "name": "execute",
      "outputs": [
        {
          "internalType": "bytes[]",
          "name": "",
          "type": "bytes[]"
        }
      ],
      "stateMutability": "payable",
      "type": "function"
    },
    {
      "inputs": [
        {
          "internalType": "address[]",
          "name": "targets",
          "type": "address[]"
        },
        {
          "internalType": "uint256[]",
          "name": "values",
          "type": "uint256[]"
        },
        {
          "internalType": "bytes[]",
          "name": "data",
          "type": "bytes[]"
        }
      ],
      "name": "executeHash",
      "outputs": [
        {
          "internalType": "bytes32",
          "name": "",
          "type": "bytes32"
        }
      ],
      "stateMutability": "view",
      "type": "function"
    },
    {
      "inputs": [],
      "name": "implementation",
      "outputs": [
        {
          "internalType": "address",
          "name": "addr",
          "type": "address"
        }
      ],
      "stateMutability": "view",
      "type": "function"
    },
    {
      "inputs": [
        {
          "internalType": "contract IENSGateway",
          "name": "ensGateway",
          "type": "address"
        },
        {
          "internalType": "bytes32",
          "name": "label",
          "type": "bytes32"
        },
        {
          "internalType": "address",
          "name": "owner",
          "type": "address"
        },
        {
          "internalType": "address[]",
          "name": "witnessAddrs",
          "type": "address[]"
        },
        {
          "internalType": "bytes32[]",
          "name": "witnessNames",
          "type": "bytes32[]"
        }
      ],
      "name": "initialize",
      "outputs": [],
      "stateMutability": "nonpayable",
      "type": "function"
    },
    {
      "inputs": [],
      "name": "initialized",
      "outputs": [
        {
          "internalType": "bool",
          "name": "",
          "type": "bool"
        }
      ],
      "stateMutability": "view",
      "type": "function"
    },
    {
      "inputs": [
        {
          "internalType": "bytes32",
          "name": "hash",
          "type": "bytes32"
        },
        {
          "internalType": "bytes",
          "name": "signature",
          "type": "bytes"
        }
      ],
      "name": "isValidOwnerSignature",
      "outputs": [
        {
          "internalType": "bool",
          "name": "",
          "type": "bool"
        }
      ],
      "stateMutability": "view",
      "type": "function"
    },
    {
      "inputs": [
        {
          "internalType": "bytes32",
          "name": "hash",
          "type": "bytes32"
        },
        {
          "internalType": "bytes",
          "name": "signature",
          "type": "bytes"
        }
      ],
      "name": "isValidSignature",
      "outputs": [
        {
          "internalType": "bytes4",
          "name": "",
          "type": "bytes4"
        }
      ],
      "stateMutability": "view",
      "type": "function"
    },
    {
      "inputs": [],
      "name": "label",
      "outputs": [
        {
          "internalType": "bytes32",
          "name": "",
          "type": "bytes32"
        }
      ],
      "stateMutability": "view",
      "type": "function"
    },
    {
      "inputs": [
        {
          "internalType": "bytes4",
          "name": "selector",
          "type": "bytes4"
        }
      ],
      "name": "lastExecutionTime",
      "outputs": [
        {
          "internalType": "uint256",
          "name": "",
          "type": "uint256"
        }
      ],
      "stateMutability": "view",
      "type": "function"
    },
    {
      "inputs": [
        {
          "components": [
            {
              "internalType": "bytes",
              "name": "owner",
              "type": "bytes"
            },
            {
              "internalType": "bytes[]",
              "name": "witnesses",
              "type": "bytes[]"
            }
          ],
          "internalType": "struct Storage.Signatures",
          "name": "signatures",
          "type": "tuple"
        }
      ],
      "name": "lock",
      "outputs": [],
      "stateMutability": "nonpayable",
      "type": "function"
    },
    {
      "inputs": [],
      "name": "lockHash",
      "outputs": [
        {
          "internalType": "bytes32",
          "name": "",
          "type": "bytes32"
        }
      ],
      "stateMutability": "view",
      "type": "function"
    },
    {
      "inputs": [],
      "name": "locked",
      "outputs": [
        {
          "internalType": "bool",
          "name": "",
          "type": "bool"
        }
      ],
      "stateMutability": "view",
      "type": "function"
    },
    {
      "inputs": [],
      "name": "minimumTransferLimitInUSD",
      "outputs": [
        {
          "internalType": "uint256",
          "name": "",
          "type": "uint256"
        }
      ],
      "stateMutability": "view",
      "type": "function"
    },
    {
      "inputs": [],
      "name": "nonce",
      "outputs": [
        {
          "internalType": "uint256",
          "name": "",
          "type": "uint256"
        }
      ],
      "stateMutability": "view",
      "type": "function"
    },
    {
      "inputs": [],
      "name": "numberOfWitnesses",
      "outputs": [
        {
          "internalType": "uint256",
          "name": "",
          "type": "uint256"
        }
      ],
      "stateMutability": "view",
      "type": "function"
    },
    {
      "inputs": [],
      "name": "owner",
      "outputs": [
        {
          "internalType": "address",
          "name": "",
          "type": "address"
        }
      ],
      "stateMutability": "view",
      "type": "function"
    },
    {
      "inputs": [],
      "name": "proxiableUUID",
      "outputs": [
        {
          "internalType": "bytes32",
          "name": "",
          "type": "bytes32"
        }
      ],
      "stateMutability": "pure",
      "type": "function"
    },
    {
      "inputs": [
        {
          "internalType": "address",
          "name": "addr",
          "type": "address"
        },
        {
          "components": [
            {
              "internalType": "bytes",
              "name": "owner",
              "type": "bytes"
            },
            {
              "internalType": "bytes[]",
              "name": "witnesses",
              "type": "bytes[]"
            }
          ],
          "internalType": "struct Storage.Signatures",
          "name": "signatures",
          "type": "tuple"
        }
      ],
      "name": "removeWitness",
      "outputs": [],
      "stateMutability": "nonpayable",
      "type": "function"
    },
    {
      "inputs": [
        {
          "internalType": "address",
          "name": "addr",
          "type": "address"
        }
      ],
      "name": "removeWitnessHash",
      "outputs": [
        {
          "internalType": "bytes32",
          "name": "",
          "type": "bytes32"
        }
      ],
      "stateMutability": "view",
      "type": "function"
    },
    {
      "inputs": [
        {
          "internalType": "bytes32",
          "name": "subdomain",
          "type": "bytes32"
        }
      ],
      "name": "resolveENS",
      "outputs": [
        {
          "internalType": "address",
          "name": "",
          "type": "address"
        }
      ],
      "stateMutability": "view",
      "type": "function"
    },
    {
      "inputs": [
        {
          "internalType": "bytes4",
          "name": "methodId",
          "type": "bytes4"
        }
      ],
      "name": "securityPeriod",
      "outputs": [
        {
          "components": [
            {
              "internalType": "uint256",
              "name": "time",
              "type": "uint256"
            },
            {
              "internalType": "bytes4[]",
              "name": "dependencies",
              "type": "bytes4[]"
            }
          ],
          "internalType": "struct Storage.SecurityPeriod",
          "name": "",
          "type": "tuple"
        }
      ],
      "stateMutability": "view",
      "type": "function"
    },
    {
      "inputs": [
        {
          "internalType": "bytes4",
          "name": "methodId",
          "type": "bytes4"
        }
      ],
      "name": "signingRequirements",
      "outputs": [
        {
          "components": [
            {
              "internalType": "bool",
              "name": "owner",
              "type": "bool"
            },
            {
              "internalType": "uint256",
              "name": "witnesses",
              "type": "uint256"
            }
          ],
          "internalType": "struct Storage.SigningRequirements",
          "name": "",
          "type": "tuple"
        }
      ],
      "stateMutability": "view",
      "type": "function"
    },
    {
      "inputs": [
        {
          "internalType": "uint256",
          "name": "numberOfWitnessSignatures",
          "type": "uint256"
        }
      ],
      "name": "transferCapacityInUSD",
      "outputs": [
        {
          "internalType": "uint256",
          "name": "",
          "type": "uint256"
        }
      ],
      "stateMutability": "view",
      "type": "function"
    },
    {
      "inputs": [],
      "name": "transferCapacityResetPeriod",
      "outputs": [
        {
          "internalType": "uint256",
          "name": "",
          "type": "uint256"
        }
      ],
      "stateMutability": "view",
      "type": "function"
    },
    {
      "inputs": [
        {
          "internalType": "address",
          "name": "token",
          "type": "address"
        },
        {
          "internalType": "address",
          "name": "to",
          "type": "address"
        },
        {
          "internalType": "uint256",
          "name": "value",
          "type": "uint256"
        },
        {
          "components": [
            {
              "internalType": "bytes",
              "name": "owner",
              "type": "bytes"
            },
            {
              "internalType": "bytes[]",
              "name": "witnesses",
              "type": "bytes[]"
            }
          ],
          "internalType": "struct Storage.Signatures",
          "name": "signatures",
          "type": "tuple"
        }
      ],
      "name": "transferERC20",
      "outputs": [],
      "stateMutability": "nonpayable",
      "type": "function"
    },
    {
      "inputs": [
        {
          "internalType": "address",
          "name": "token",
          "type": "address"
        },
        {
          "internalType": "address",
          "name": "to",
          "type": "address"
        },
        {
          "internalType": "uint256",
          "name": "value",
          "type": "uint256"
        }
      ],
      "name": "transferERC20Hash",
      "outputs": [
        {
          "internalType": "bytes32",
          "name": "",
          "type": "bytes32"
        }
      ],
      "stateMutability": "view",
      "type": "function"
    },
    {
      "inputs": [
        {
          "internalType": "address payable",
          "name": "to",
          "type": "address"
        },
        {
          "internalType": "uint256",
          "name": "value",
          "type": "uint256"
        },
        {
          "components": [
            {
              "internalType": "bytes",
              "name": "owner",
              "type": "bytes"
            },
            {
              "internalType": "bytes[]",
              "name": "witnesses",
              "type": "bytes[]"
            }
          ],
          "internalType": "struct Storage.Signatures",
          "name": "signatures",
          "type": "tuple"
        }
      ],
      "name": "transferETH",
      "outputs": [],
      "stateMutability": "nonpayable",
      "type": "function"
    },
    {
      "inputs": [
        {
          "internalType": "address payable",
          "name": "to",
          "type": "address"
        },
        {
          "internalType": "uint256",
          "name": "value",
          "type": "uint256"
        }
      ],
      "name": "transferETHHash",
      "outputs": [
        {
          "internalType": "bytes32",
          "name": "",
          "type": "bytes32"
        }
      ],
      "stateMutability": "view",
      "type": "function"
    },
    {
      "inputs": [
        {
          "internalType": "address",
          "name": "newOwner",
          "type": "address"
        },
        {
          "components": [
            {
              "internalType": "bytes",
              "name": "owner",
              "type": "bytes"
            },
            {
              "internalType": "bytes[]",
              "name": "witnesses",
              "type": "bytes[]"
            }
          ],
          "internalType": "struct Storage.Signatures",
          "name": "signatures",
          "type": "tuple"
        }
      ],
      "name": "transferOwnership",
      "outputs": [],
      "stateMutability": "nonpayable",
      "type": "function"
    },
    {
      "inputs": [
        {
          "internalType": "address",
          "name": "newOwner",
          "type": "address"
        }
      ],
      "name": "transferOwnershipHash",
      "outputs": [
        {
          "internalType": "bytes32",
          "name": "",
          "type": "bytes32"
        }
      ],
      "stateMutability": "view",
      "type": "function"
    },
    {
      "inputs": [
        {
          "components": [
            {
              "internalType": "bytes",
              "name": "owner",
              "type": "bytes"
            },
            {
              "internalType": "bytes[]",
              "name": "witnesses",
              "type": "bytes[]"
            }
          ],
          "internalType": "struct Storage.Signatures",
          "name": "signatures",
          "type": "tuple"
        }
      ],
      "name": "unlock",
      "outputs": [],
      "stateMutability": "nonpayable",
      "type": "function"
    },
    {
      "inputs": [],
      "name": "unlockHash",
      "outputs": [
        {
          "internalType": "bytes32",
          "name": "",
          "type": "bytes32"
        }
      ],
      "stateMutability": "view",
      "type": "function"
    },
    {
      "inputs": [
        {
          "internalType": "address",
          "name": "impl",
          "type": "address"
        },
        {
          "components": [
            {
              "internalType": "bytes",
              "name": "owner",
              "type": "bytes"
            },
            {
              "internalType": "bytes[]",
              "name": "witnesses",
              "type": "bytes[]"
            }
          ],
          "internalType": "struct Storage.Signatures",
          "name": "signatures",
          "type": "tuple"
        }
      ],
      "name": "upgrade",
      "outputs": [],
      "stateMutability": "nonpayable",
      "type": "function"
    },
    {
      "inputs": [
        {
          "internalType": "address",
          "name": "impl",
          "type": "address"
        }
      ],
      "name": "upgradeHash",
      "outputs": [
        {
          "internalType": "bytes32",
          "name": "",
          "type": "bytes32"
        }
      ],
      "stateMutability": "view",
      "type": "function"
    },
    {
      "inputs": [
        {
          "internalType": "address",
          "name": "addr",
          "type": "address"
        }
      ],
      "name": "witnessNames",
      "outputs": [
        {
          "internalType": "bytes32",
          "name": "",
          "type": "bytes32"
        }
      ],
      "stateMutability": "view",
      "type": "function"
    },
    {
      "inputs": [
        {
          "internalType": "uint256",
          "name": "index",
          "type": "uint256"
        }
      ],
      "name": "witnesses",
      "outputs": [
        {
          "internalType": "address",
          "name": "",
          "type": "address"
        }
      ],
      "stateMutability": "view",
      "type": "function"
    }
  ],
  "address": "0x24aa39584758916c4e5c156241e4586b31a38b48",
  "args": [],
  "solcInputHash": "0x0ba34002262c75f24ebbcd47c2a71ec7f5830be3e50c097a446a7d66537a7b5a",
  "bytecode": "0x608060405234801561001057600080fd5b50615dba80620000216000396000f3fe60806040526004361061023b5760003560e01c8063778c62061161012e578063affed0e0116100ab578063cc2f4aff1161006f578063cc2f4aff14610696578063cf309012146106b6578063d09ea903146106cb578063de3432d8146106e0578063ff6f686d146106f55761023b565b8063affed0e01461060c578063b0158bd014610621578063c3fcc90a14610641578063c60efc2414610661578063cb4774c4146106815761023b565b806398e87715116100f257806398e877151461056a578063a6de26e714610597578063a793b376146105b7578063a79b48d6146105d7578063a92df3d3146105ec5761023b565b8063778c6206146104d55780637cea91cb146104f55780637fa78497146105155780638da5cb5b146105355780638f841f991461054a5761023b565b806347332179116101bc5780635626b8fb116101805780635626b8fb1461043e5780635c60da1b1461045e57806364471e4414610480578063670a8cb7146104a05780636fee9295146104c05761023b565b806347332179146103a95780635229b0c6146103c957806352b532b4146103e957806352d1902d1461040957806355f2f6371461041e5761023b565b80631ec1a7f1116102035780631ec1a7f1146102fa5780633d23472d1461031a578063405a85f61461033c57806344eed35d14610369578063457ac616146103895761023b565b806303435619146102405780630bee279c14610276578063101c46381461028b578063158ef93e146102ab5780631626ba7e146102cd575b600080fd5b34801561024c57600080fd5b5061026061025b366004614d05565b610715565b60405161026d9190615627565b60405180910390f35b34801561028257600080fd5b506102606107e9565b34801561029757600080fd5b506102606102a6366004614ccd565b61087a565b3480156102b757600080fd5b506102c061094a565b60405161026d919061561c565b3480156102d957600080fd5b506102ed6102e8366004615059565b610953565b60405161026d9190615647565b34801561030657600080fd5b50610260610315366004614db3565b610a04565b34801561032657600080fd5b5061033a610335366004614d5d565b610ada565b005b34801561034857600080fd5b5061035c610357366004615093565b610d60565b60405161026d9190615c73565b34801561037557600080fd5b5061033a610384366004615223565b610e16565b34801561039557600080fd5b506102606103a4366004614fef565b611060565b3480156103b557600080fd5b5061033a6103c4366004615223565b6110ed565b3480156103d557600080fd5b5061033a6103e4366004614df3565b611346565b3480156103f557600080fd5b5061033a610404366004614e6e565b6115d7565b34801561041557600080fd5b5061026061183d565b61043161042c366004614f34565b61184f565b60405161026d91906155bc565b34801561044a57600080fd5b506102c0610459366004615059565b611b20565b34801561046a57600080fd5b50610473611bb6565b60405161026d9190615575565b34801561048c57600080fd5b5061026061049b366004614ebb565b611bc9565b3480156104ac57600080fd5b506104736104bb366004614fef565b611c9d565b3480156104cc57600080fd5b50610260611d2a565b3480156104e157600080fd5b506102606104f0366004614ccd565b611d65565b34801561050157600080fd5b5061033a610510366004614e6e565b611da2565b34801561052157600080fd5b50610260610530366004614fef565b61206a565b34801561054157600080fd5b506104736120a7565b34801561055657600080fd5b5061033a610565366004614d5d565b612132565b34801561057657600080fd5b5061058a610585366004615093565b612398565b60405161026d9190615c11565b3480156105a357600080fd5b506102606105b2366004615093565b6124cf565b3480156105c357600080fd5b5061033a6105d236600461513a565b61250c565b3480156105e357600080fd5b5061026061271b565b3480156105f857600080fd5b50610473610607366004614fef565b612756565b34801561061857600080fd5b506102606128d4565b34801561062d57600080fd5b5061033a61063c366004614e6e565b61290f565b34801561064d57600080fd5b506102c061065c36600461501f565b612b63565b34801561066d57600080fd5b5061026061067c366004614ccd565b612ba2565b34801561068d57600080fd5b50610260612c55565b3480156106a257600080fd5b506102606106b1366004614ccd565b612c90565b3480156106c257600080fd5b506102c0612d43565b3480156106d757600080fd5b50610260612dce565b3480156106ec57600080fd5b50610260612e9a565b34801561070157600080fd5b50610260610710366004614e5c565b612f4b565b604051631f7c8c7560e01b8152600090601960f81b908290309073__$5daae515ac26c421a7f982ec8dcf175676$__90631f7c8c759061075a90600390600401615627565b60206040518083038186803b15801561077257600080fd5b505af4158015610786573d6000803e3d6000fd5b505050506040513d601f19601f820116820180604052508101906107aa9190615007565b6040516107ca9493929190638f841f9960e01b90899089906020016153a6565b6040516020818303038152906040528051906020012090505b92915050565b6040516320be906160e21b815260009073__$5daae515ac26c421a7f982ec8dcf175676$__906382fa41849061082490600390600401615627565b60206040518083038186803b15801561083c57600080fd5b505af4158015610850573d6000803e3d6000fd5b505050506040513d601f19601f820116820180604052508101906108749190615007565b90505b90565b604051631f7c8c7560e01b8152600090601960f81b908290309073__$5daae515ac26c421a7f982ec8dcf175676$__90631f7c8c75906108bf90600390600401615627565b60206040518083038186803b1580156108d757600080fd5b505af41580156108eb573d6000803e3d6000fd5b505050506040513d601f19601f8201168201806040525081019061090f9190615007565b60405161092d94939291906314ad4cad60e21b908890602001615352565b604051602081830303815290604052805190602001209050919050565b60005460ff1690565b6040516314ca1a1d60e31b815260009073__$5daae515ac26c421a7f982ec8dcf175676$__9063a650d0e8906109929060039087908790600401615b72565b60206040518083038186803b1580156109aa57600080fd5b505af41580156109be573d6000803e3d6000fd5b505050506040513d601f19601f820116820180604052508101906109e29190614fcf565b156109f55750630b135d3f60e11b6107e3565b506001600160e01b03196107e3565b604051631f7c8c7560e01b8152600090601960f81b908290309073__$5daae515ac26c421a7f982ec8dcf175676$__90631f7c8c7590610a4990600390600401615627565b60206040518083038186803b158015610a6157600080fd5b505af4158015610a75573d6000803e3d6000fd5b505050506040513d601f19601f82011682018060405250810190610a999190615007565b604051610abb9493929190632914d86360e11b908a908a908a90602001615403565b6040516020818303038152906040528051906020012090509392505050565b60005460ff16610b055760405162461bcd60e51b8152600401610afc9061575b565b60405180910390fd5b6040516334492ee160e21b815273__$5daae515ac26c421a7f982ec8dcf175676$__9063d124bb8490610b3d90600390600401615627565b60206040518083038186803b158015610b5557600080fd5b505af4158015610b69573d6000803e3d6000fd5b505050506040513d601f19601f82011682018060405250810190610b8d9190614fcf565b15610baa5760405162461bcd60e51b8152600401610afc906159be565b610bba633d23472d60e01b613000565b610bd5633d23472d60e01b610bcf8585612f4b565b83613190565b6040516382f3783960e01b815273__$5daae515ac26c421a7f982ec8dcf175676$__906382f3783990610c0d90600390600401615627565b60006040518083038186803b158015610c2557600080fd5b505af4158015610c39573d6000803e3d6000fd5b505060405163227eb6fb60e11b815273__$5daae515ac26c421a7f982ec8dcf175676$__92506344fd6df69150610c7e90600390633d23472d60e01b90600401615b9a565b60006040518083038186803b158015610c9657600080fd5b505af4158015610caa573d6000803e3d6000fd5b505060405163ce2a990160e01b815273__$5daae515ac26c421a7f982ec8dcf175676$__925063ce2a99019150610cea9060039087908790600401615ac6565b60006040518083038186803b158015610d0257600080fd5b505af4158015610d16573d6000803e3d6000fd5b50505050826001600160a01b03167ff42817f1f41ba12a86fa57dc75ba2c8735c6ca6f089c82db9754e98387682ad583604051610d539190615627565b60405180910390a2505050565b610d68614a59565b6040516356381faf60e11b815273__$5daae515ac26c421a7f982ec8dcf175676$__9063ac703f5e90610da2906003908690600401615b9a565b60206040518083038186803b158015610dba57600080fd5b505af4158015610dce573d6000803e3d6000fd5b505050506040513d601f19601f82011682018060405250810190610df29190615007565b60408051808201909152815460ff1615158152600190910154602082015292915050565b60005460ff16610e385760405162461bcd60e51b8152600401610afc9061575b565b6040516334492ee160e21b815273__$5daae515ac26c421a7f982ec8dcf175676$__9063d124bb8490610e7090600390600401615627565b60206040518083038186803b158015610e8857600080fd5b505af4158015610e9c573d6000803e3d6000fd5b505050506040513d601f19601f82011682018060405250810190610ec09190614fcf565b15610edd5760405162461bcd60e51b8152600401610afc906159be565b610ef06344eed35d60e01b610bcf612dce565b6040516382f3783960e01b815273__$5daae515ac26c421a7f982ec8dcf175676$__906382f3783990610f2890600390600401615627565b60006040518083038186803b158015610f4057600080fd5b505af4158015610f54573d6000803e3d6000fd5b505060405163227eb6fb60e11b815273__$5daae515ac26c421a7f982ec8dcf175676$__92506344fd6df69150610f99906003906344eed35d60e01b90600401615b9a565b60006040518083038186803b158015610fb157600080fd5b505af4158015610fc5573d6000803e3d6000fd5b5050604051630668a84f60e01b815273__$5daae515ac26c421a7f982ec8dcf175676$__9250630668a84f915061100490600390600190600401615ae5565b60006040518083038186803b15801561101c57600080fd5b505af4158015611030573d6000803e3d6000fd5b50506040517f0f2e5b6c72c6a4491efd919a9f9a409f324ef0708c11ee57d410c2cb06c0992b925060009150a150565b604051630301bdab60e31b815260009073__$5daae515ac26c421a7f982ec8dcf175676$__9063180ded589061109d906003908690600401615af5565b60206040518083038186803b1580156110b557600080fd5b505af41580156110c9573d6000803e3d6000fd5b505050506040513d601f19601f820116820180604052508101906107e39190615007565b60005460ff1661110f5760405162461bcd60e51b8152600401610afc9061575b565b6040516334492ee160e21b815273__$5daae515ac26c421a7f982ec8dcf175676$__9063d124bb849061114790600390600401615627565b60206040518083038186803b15801561115f57600080fd5b505af4158015611173573d6000803e3d6000fd5b505050506040513d601f19601f820116820180604052508101906111979190614fcf565b6111b35760405162461bcd60e51b8152600401610afc906158a0565b6111c3634733217960e01b613000565b6111d6634733217960e01b610bcf612e9a565b6040516382f3783960e01b815273__$5daae515ac26c421a7f982ec8dcf175676$__906382f378399061120e90600390600401615627565b60006040518083038186803b15801561122657600080fd5b505af415801561123a573d6000803e3d6000fd5b505060405163227eb6fb60e11b815273__$5daae515ac26c421a7f982ec8dcf175676$__92506344fd6df6915061127f90600390634733217960e01b90600401615b9a565b60006040518083038186803b15801561129757600080fd5b505af41580156112ab573d6000803e3d6000fd5b5050604051630668a84f60e01b815273__$5daae515ac26c421a7f982ec8dcf175676$__9250630668a84f91506112ea90600390600090600401615ae5565b60006040518083038186803b15801561130257600080fd5b505af4158015611316573d6000803e3d6000fd5b50506040517f19aad37188a1d3921e29eb3c66acf43d81975e107cb650d58cca878627955fd6925060009150a150565b60005460ff166113685760405162461bcd60e51b8152600401610afc9061575b565b6040516334492ee160e21b815273__$5daae515ac26c421a7f982ec8dcf175676$__9063d124bb84906113a090600390600401615627565b60206040518083038186803b1580156113b857600080fd5b505af41580156113cc573d6000803e3d6000fd5b505050506040513d601f19601f820116820180604052508101906113f09190614fcf565b1561140d5760405162461bcd60e51b8152600401610afc906159be565b6040516370a0823160e01b81526001600160a01b038516906370a0823190611439903090600401615575565b60206040518083038186803b15801561145157600080fd5b505afa158015611465573d6000803e3d6000fd5b505050506040513d601f19601f820116820180604052508101906114899190615007565b8211156114a85760405162461bcd60e51b8152600401610afc906157b2565b6114b8632914d86360e11b613000565b6114ce632914d86360e11b610bcf868686610a04565b6040516382f3783960e01b815273__$5daae515ac26c421a7f982ec8dcf175676$__906382f378399061150690600390600401615627565b60006040518083038186803b15801561151e57600080fd5b505af4158015611532573d6000803e3d6000fd5b505060405163227eb6fb60e11b815273__$5daae515ac26c421a7f982ec8dcf175676$__92506344fd6df6915061157790600390632914d86360e11b90600401615b9a565b60006040518083038186803b15801561158f57600080fd5b505af41580156115a3573d6000803e3d6000fd5b505050506115b784838360200151516133a8565b6115d16001600160a01b038516848463ffffffff61358b16565b50505050565b60005460ff166115f95760405162461bcd60e51b8152600401610afc9061575b565b6040516334492ee160e21b815273__$5daae515ac26c421a7f982ec8dcf175676$__9063d124bb849061163190600390600401615627565b60206040518083038186803b15801561164957600080fd5b505af415801561165d573d6000803e3d6000fd5b505050506040513d601f19601f820116820180604052508101906116819190614fcf565b1561169e5760405162461bcd60e51b8152600401610afc906159be565b6116ae6314ad4cad60e21b613000565b6116c26314ad4cad60e21b610bcf8461087a565b6040516382f3783960e01b815273__$5daae515ac26c421a7f982ec8dcf175676$__906382f37839906116fa90600390600401615627565b60006040518083038186803b15801561171257600080fd5b505af4158015611726573d6000803e3d6000fd5b505060405163227eb6fb60e11b815273__$5daae515ac26c421a7f982ec8dcf175676$__92506344fd6df6915061176b906003906314ad4cad60e21b90600401615b9a565b60006040518083038186803b15801561178357600080fd5b505af4158015611797573d6000803e3d6000fd5b505060405163651facb960e11b815273__$5daae515ac26c421a7f982ec8dcf175676$__925063ca3f597291506117d5906003908690600401615630565b60006040518083038186803b1580156117ed57600080fd5b505af4158015611801573d6000803e3d6000fd5b50506040516001600160a01b03851692507f8b5785dce93ca82765b1cc25cedcda1b501288cb23a1fd171c0091d83900f9bd9150600090a25050565b600080516020615d6583398151915290565b60005460609060ff166118745760405162461bcd60e51b8152600401610afc9061575b565b6040516334492ee160e21b815273__$5daae515ac26c421a7f982ec8dcf175676$__9063d124bb84906118ac90600390600401615627565b60206040518083038186803b1580156118c457600080fd5b505af41580156118d8573d6000803e3d6000fd5b505050506040513d601f19601f820116820180604052508101906118fc9190614fcf565b156119195760405162461bcd60e51b8152600401610afc906159be565b8351855114801561192b575082518451145b6119475760405162461bcd60e51b8152600401610afc906158fb565b6119576355f2f63760e01b613000565b6119736355f2f63760e01b61196d878787611bc9565b84613190565b6040516382f3783960e01b815273__$5daae515ac26c421a7f982ec8dcf175676$__906382f37839906119ab90600390600401615627565b60006040518083038186803b1580156119c357600080fd5b505af41580156119d7573d6000803e3d6000fd5b505060405163227eb6fb60e11b815273__$5daae515ac26c421a7f982ec8dcf175676$__92506344fd6df69150611a1c906003906355f2f63760e01b90600401615b9a565b60006040518083038186803b158015611a3457600080fd5b505af4158015611a48573d6000803e3d6000fd5b50505050606085516001600160401b0381118015611a6557600080fd5b50604051908082528060200260200182016040528015611a9957816020015b6060815260200190600190039081611a845790505b50905060005b8651811015611b0c57611aed878281518110611ab757fe5b6020026020010151878381518110611acb57fe5b6020026020010151878481518110611adf57fe5b6020026020010151876135e1565b828281518110611af957fe5b6020908102919091010152600101611a9f565b50611b15613930565b90505b949350505050565b6040516314ca1a1d60e31b815260009073__$5daae515ac26c421a7f982ec8dcf175676$__9063a650d0e890611b5f9060039087908790600401615b72565b60206040518083038186803b158015611b7757600080fd5b505af4158015611b8b573d6000803e3d6000fd5b505050506040513d601f19601f82011682018060405250810190611baf9190614fcf565b9392505050565b600080516020615d658339815191525490565b604051631f7c8c7560e01b8152600090601960f81b908290309073__$5daae515ac26c421a7f982ec8dcf175676$__90631f7c8c7590611c0e90600390600401615627565b60206040518083038186803b158015611c2657600080fd5b505af4158015611c3a573d6000803e3d6000fd5b505050506040513d601f19601f82011682018060405250810190611c5e9190615007565b6355f2f63760e01b888888604051602001611c7991906155bc565b60408051601f1981840301815290829052610abb9897969594939291602001615469565b604051630fca77a560e41b815260009073__$5daae515ac26c421a7f982ec8dcf175676$__9063fca77a5090611cda906003908690600401615af5565b60206040518083038186803b158015611cf257600080fd5b505af4158015611d06573d6000803e3d6000fd5b505050506040513d601f19601f820116820180604052508101906107e39190614ce9565b604051630b12eeb360e31b815260009073__$5daae515ac26c421a7f982ec8dcf175676$__9063589775989061082490600390600401615627565b6040516318d28ee960e01b815260009073__$5daae515ac26c421a7f982ec8dcf175676$__906318d28ee99061109d906003908690600401615630565b60005460ff16611dc45760405162461bcd60e51b8152600401610afc9061575b565b611dd8637cea91cb60e01b610bcf84612c90565b6000611e07604051602001611dec9061553e565b60405160208183030381529060405280519060200120612756565b6040516305b07fa560e51b81529091506000906001600160a01b0383169063b60ff4a090611e39908790600401615575565b60206040518083038186803b158015611e5157600080fd5b505afa158015611e65573d6000803e3d6000fd5b505050506040513d601f19601f82011682018060405250810190611e899190615007565b1415611ea75760405162461bcd60e51b8152600401610afc9061595f565b826001600160a01b03166352d1902d6040518163ffffffff1660e01b815260040160206040518083038186803b158015611ee057600080fd5b505afa158015611ef4573d6000803e3d6000fd5b505050506040513d601f19601f82011682018060405250810190611f189190615007565b600080516020615d6583398151915214611f445760405162461bcd60e51b8152600401610afc9061566f565b6040516382f3783960e01b815273__$5daae515ac26c421a7f982ec8dcf175676$__906382f3783990611f7c90600390600401615627565b60006040518083038186803b158015611f9457600080fd5b505af4158015611fa8573d6000803e3d6000fd5b505060405163227eb6fb60e11b815273__$5daae515ac26c421a7f982ec8dcf175676$__92506344fd6df69150611fed90600390637cea91cb60e01b90600401615b9a565b60006040518083038186803b15801561200557600080fd5b505af4158015612019573d6000803e3d6000fd5b5050505082600080516020615d65833981519152557fbc7cd75a20ee27fd9adebab32041f755214dbc6bffa90cc0225b39da2e5c2d3b8360405161205d9190615575565b60405180910390a1505050565b604051634bf2745d60e11b815260009073__$5daae515ac26c421a7f982ec8dcf175676$__906397e4e8ba9061109d906003908690600401615af5565b6040516377cc93ed60e01b815260009073__$5daae515ac26c421a7f982ec8dcf175676$__906377cc93ed906120e290600390600401615627565b60206040518083038186803b1580156120fa57600080fd5b505af415801561210e573d6000803e3d6000fd5b505050506040513d601f19601f820116820180604052508101906108749190614ce9565b60005460ff166121545760405162461bcd60e51b8152600401610afc9061575b565b6040516334492ee160e21b815273__$5daae515ac26c421a7f982ec8dcf175676$__9063d124bb849061218c90600390600401615627565b60206040518083038186803b1580156121a457600080fd5b505af41580156121b8573d6000803e3d6000fd5b505050506040513d601f19601f820116820180604052508101906121dc9190614fcf565b156121f95760405162461bcd60e51b8152600401610afc906159be565b478211156122195760405162461bcd60e51b8152600401610afc906157b2565b612229638f841f9960e01b613000565b61223e638f841f9960e01b610bcf8585610715565b6040516382f3783960e01b815273__$5daae515ac26c421a7f982ec8dcf175676$__906382f378399061227690600390600401615627565b60006040518083038186803b15801561228e57600080fd5b505af41580156122a2573d6000803e3d6000fd5b505060405163227eb6fb60e11b815273__$5daae515ac26c421a7f982ec8dcf175676$__92506344fd6df691506122e790600390638f841f9960e01b90600401615b9a565b60006040518083038186803b1580156122ff57600080fd5b505af4158015612313573d6000803e3d6000fd5b5050505061232682826020015151613a1b565b6040516001600160a01b0384169083156108fc029084906000818181858888f1935050505015801561235c573d6000803e3d6000fd5b5060405182906001600160a01b038516907f1445764fe3fdfc2a9812ff42e9b65c2e7896d5162851f78f7d4a5578f7346ff190600090a3505050565b6123a0614a70565b60405163d51b48b160e01b815273__$5daae515ac26c421a7f982ec8dcf175676$__9063d51b48b1906123da906003908690600401615b9a565b60006040518083038186803b1580156123f257600080fd5b505af4158015612406573d6000803e3d6000fd5b505050506040513d6000823e601f3d908101601f1916820160405261242e9190810190615007565b60405180604001604052908160008201548152602001600182018054806020026020016040519081016040528092919081815260200182805480156124bf57602002820191906000526020600020906000905b82829054906101000a900460e01b6001600160e01b031916815260200190600401906020826003010492830192600103820291508084116124815790505b5050505050815250509050919050565b60405163617e4be760e11b815260009073__$5daae515ac26c421a7f982ec8dcf175676$__9063c2fc97ce9061109d906003908690600401615b9a565b600054610100900460ff1680612525575060005460ff16155b6125415760405162461bcd60e51b8152600401610afc906157de565b600054610100900460ff1615801561256c576000805460ff1961ff0019909116610100171660011790555b6125768686613bfb565b81518351146125975760405162461bcd60e51b8152600401610afc90615869565b60008351116125b85760405162461bcd60e51b8152600401610afc90615a8f565b604051630fce861f60e11b815273__$5daae515ac26c421a7f982ec8dcf175676$__90631f9d0c3e906125f2906003908890600401615630565b60006040518083038186803b15801561260a57600080fd5b505af415801561261e573d6000803e3d6000fd5b506000925050505b83518110156126cf57600373__$5daae515ac26c421a7f982ec8dcf175676$__63ce2a9901909186848151811061265957fe5b602002602001015186858151811061266d57fe5b60200260200101516040518463ffffffff1660e01b815260040161269393929190615ac6565b60006040518083038186803b1580156126ab57600080fd5b505af41580156126bf573d6000803e3d6000fd5b5050600190920191506126269050565b506126d8613d29565b80156126ea576000805461ff00191690555b6040517f5daa87a0e9463431830481fd4b6e3403442dfb9a12b9c07597e9f61d50b633c890600090a1505050505050565b604051630c18a8b160e01b815260009073__$5daae515ac26c421a7f982ec8dcf175676$__90630c18a8b19061082490600390600401615627565b60025460405163da512b2360e01b815260009182916001600160a01b039091169063da512b239061278b908690600401615627565b60206040518083038186803b1580156127a357600080fd5b505afa1580156127b7573d6000803e3d6000fd5b505050506040513d601f19601f820116820180604052508101906127db9190614ce9565b600254604051635f63c91960e11b81529192506001600160a01b0380841692633b3b57de929091169063bec7923290612818908890600401615627565b60206040518083038186803b15801561283057600080fd5b505afa158015612844573d6000803e3d6000fd5b505050506040513d601f19601f820116820180604052508101906128689190615007565b6040518263ffffffff1660e01b81526004016128849190615627565b60206040518083038186803b15801561289c57600080fd5b505afa1580156128b0573d6000803e3d6000fd5b505050506040513d601f19601f82011682018060405250810190611baf9190614ce9565b604051631f7c8c7560e01b815260009073__$5daae515ac26c421a7f982ec8dcf175676$__90631f7c8c759061082490600390600401615627565b60005460ff166129315760405162461bcd60e51b8152600401610afc9061575b565b612941630b0158bd60e41b613000565b612955630b0158bd60e41b610bcf84612ba2565b6040516382f3783960e01b815273__$5daae515ac26c421a7f982ec8dcf175676$__906382f378399061298d90600390600401615627565b60006040518083038186803b1580156129a557600080fd5b505af41580156129b9573d6000803e3d6000fd5b505060405163227eb6fb60e11b815273__$5daae515ac26c421a7f982ec8dcf175676$__92506344fd6df691506129fe90600390630b0158bd60e41b90600401615b9a565b60006040518083038186803b158015612a1657600080fd5b505af4158015612a2a573d6000803e3d6000fd5b50506040516377cc93ed60e01b81526000925073__$5daae515ac26c421a7f982ec8dcf175676$__91506377cc93ed90612a6990600390600401615627565b60206040518083038186803b158015612a8157600080fd5b505af4158015612a95573d6000803e3d6000fd5b505050506040513d601f19601f82011682018060405250810190612ab99190614ce9565b604051630fce861f60e11b815290915073__$5daae515ac26c421a7f982ec8dcf175676$__90631f9d0c3e90612af6906003908790600401615630565b60006040518083038186803b158015612b0e57600080fd5b505af4158015612b22573d6000803e3d6000fd5b50506040516001600160a01b038087169350841691507f8be0079c531659141344cd1fd0a4f28419497f9722a3daafe3b4186f6b6457e090600090a3505050565b6040516339a1afa160e21b815260009073__$5daae515ac26c421a7f982ec8dcf175676$__9063e686be8490611b5f9060039087908790600401615b03565b604051631f7c8c7560e01b8152600090601960f81b908290309073__$5daae515ac26c421a7f982ec8dcf175676$__90631f7c8c7590612be790600390600401615627565b60206040518083038186803b158015612bff57600080fd5b505af4158015612c13573d6000803e3d6000fd5b505050506040513d601f19601f82011682018060405250810190612c379190615007565b60405161092d9493929190630b0158bd60e41b908890602001615352565b60405163998c8bbb60e01b815260009073__$5daae515ac26c421a7f982ec8dcf175676$__9063998c8bbb9061082490600390600401615627565b604051631f7c8c7560e01b8152600090601960f81b908290309073__$5daae515ac26c421a7f982ec8dcf175676$__90631f7c8c7590612cd590600390600401615627565b60206040518083038186803b158015612ced57600080fd5b505af4158015612d01573d6000803e3d6000fd5b505050506040513d601f19601f82011682018060405250810190612d259190615007565b60405161092d9493929190637cea91cb60e01b908890602001615352565b6040516334492ee160e21b815260009073__$5daae515ac26c421a7f982ec8dcf175676$__9063d124bb8490612d7e90600390600401615627565b60206040518083038186803b158015612d9657600080fd5b505af4158015612daa573d6000803e3d6000fd5b505050506040513d601f19601f820116820180604052508101906108749190614fcf565b604051631f7c8c7560e01b8152600090601960f81b908290309073__$5daae515ac26c421a7f982ec8dcf175676$__90631f7c8c7590612e1390600390600401615627565b60206040518083038186803b158015612e2b57600080fd5b505af4158015612e3f573d6000803e3d6000fd5b505050506040513d601f19601f82011682018060405250810190612e639190615007565b604051612e7f94939291906344eed35d60e01b90602001615309565b60405160208183030381529060405280519060200120905090565b604051631f7c8c7560e01b8152600090601960f81b908290309073__$5daae515ac26c421a7f982ec8dcf175676$__90631f7c8c7590612edf90600390600401615627565b60206040518083038186803b158015612ef757600080fd5b505af4158015612f0b573d6000803e3d6000fd5b505050506040513d601f19601f82011682018060405250810190612f2f9190615007565b604051612e7f9493929190634733217960e01b90602001615309565b604051631f7c8c7560e01b8152600090601960f81b908290309073__$5daae515ac26c421a7f982ec8dcf175676$__90631f7c8c7590612f9090600390600401615627565b60206040518083038186803b158015612fa857600080fd5b505af4158015612fbc573d6000803e3d6000fd5b505050506040513d601f19601f82011682018060405250810190612fe09190615007565b6040516107ca9493929190633d23472d60e01b90899089906020016153a6565b60405163d51b48b160e01b815260009073__$5daae515ac26c421a7f982ec8dcf175676$__9063d51b48b19061303d906003908690600401615b9a565b60006040518083038186803b15801561305557600080fd5b505af4158015613069573d6000803e3d6000fd5b505050506040513d6000823e601f3d908101601f191682016040526130919190810190615007565b905060005b600182015481101561318b578160000154600373__$5daae515ac26c421a7f982ec8dcf175676$__63c2fc97ce90918560010185815481106130d457fe5b90600052602060002090600891828204019190066004029054906101000a900460e01b6040518363ffffffff1660e01b8152600401613114929190615b9a565b60206040518083038186803b15801561312c57600080fd5b505af4158015613140573d6000803e3d6000fd5b505050506040513d601f19601f820116820180604052508101906131649190615007565b0142116131835760405162461bcd60e51b8152600401610afc906158c4565b600101613096565b505050565b6040516356381faf60e11b815260009073__$5daae515ac26c421a7f982ec8dcf175676$__9063ac703f5e906131cd906003908890600401615b9a565b60206040518083038186803b1580156131e557600080fd5b505af41580156131f9573d6000803e3d6000fd5b505050506040513d601f19601f8201168201806040525081019061321d9190615007565b805490915060ff16156132d35781516040516314ca1a1d60e31b815273__$5daae515ac26c421a7f982ec8dcf175676$__9163a650d0e89161326791600391889190600401615b72565b60206040518083038186803b15801561327f57600080fd5b505af4158015613293573d6000803e3d6000fd5b505050506040513d601f19601f820116820180604052508101906132b79190614fcf565b6132d35760405162461bcd60e51b8152600401610afc90615932565b806001015482602001515110156132fc5760405162461bcd60e51b8152600401610afc90615724565b60208201516040516339a1afa160e21b815273__$5daae515ac26c421a7f982ec8dcf175676$__9163e686be849161333c91600391889190600401615b03565b60206040518083038186803b15801561335457600080fd5b505af4158015613368573d6000803e3d6000fd5b505050506040513d601f19601f8201168201806040525081019061338c9190614fcf565b6115d15760405162461bcd60e51b8152600401610afc906156c0565b60006133b2613d51565b6001600160a01b031663eb488a7785856040518363ffffffff1660e01b81526004016133df9291906155a3565b60206040518083038186803b1580156133f757600080fd5b505afa15801561340b573d6000803e3d6000fd5b505050506040513d601f19601f8201168201806040525081019061342f9190615007565b604051630301bdab60e31b815290915060009073__$5daae515ac26c421a7f982ec8dcf175676$__9063180ded589061346f906003908790600401615af5565b60206040518083038186803b15801561348757600080fd5b505af415801561349b573d6000803e3d6000fd5b505050506040513d601f19601f820116820180604052508101906134bf9190615007565b9050808211156134e15760405162461bcd60e51b8152600401610afc90615a58565b604051631b45b56960e11b815273__$5daae515ac26c421a7f982ec8dcf175676$__9063368b6ad29061351b906003908690600401615af5565b60006040518083038186803b15801561353357600080fd5b505af4158015613547573d6000803e3d6000fd5b505050507f999fc13182c1dc368ce43440c7fdfa39ad23e5f44ed5b242a2d2abc049d0a1f7824260405161357c929190615af5565b60405180910390a15050505050565b61318b8363a9059cbb60e01b84846040516024016135aa9291906155a3565b60408051601f198184030181529190526020810180516001600160e01b03166001600160e01b031990931692909217909152613d65565b6060600260015414156136065760405162461bcd60e51b8152600401610afc90615698565b60026001556001600160a01b0385166136315760405162461bcd60e51b8152600401610afc906159e6565b478411156136515760405162461bcd60e51b8152600401610afc906157b2565b846001600160a01b03167fcaf938de11c367272220bfd1d2baa99ca46665e7bc4d85f00adb51b90fe1fa9f858560405161368c929190615c8c565b60405180910390a283156136a9576136a984836020015151613a1b565b8251156138cd5760006060848060200190518101906136c891906150af565b90925090506001600160e01b0319821663a9059cbb60e01b141561374657600080828060200190518101906136fd9190614d30565b9150915061371189828860200151516133a8565b61372b6001600160a01b038a16838a63ffffffff61358b16565b60405180602001604052806000815250945050505050613924565b6001600160e01b0319821663095ea7b360e01b141561383057600080828060200190518101906137769190614d30565b9150915061378a89828860200151516133a8565b6137948983613df4565b60405163095ea7b360e01b81526001600160a01b038a169063095ea7b3906137c29085908c906004016155a3565b602060405180830381600087803b1580156137dc57600080fd5b505af11580156137f0573d6000803e3d6000fd5b505050506040513d601f19601f820116820180604052508101906138149190614fcf565b5060405180602001604052806000815250945050505050613924565b60006060886001600160a01b0316888860405161384d9190615509565b60006040518083038185875af1925050503d806000811461388a576040519150601f19603f3d011682016040523d82523d6000602084013e61388f565b606091505b509150915081156138a557935061392492505050565b8051156138b55780518082602001fd5b60405162461bcd60e51b8152600401610afc90615784565b6138dc84836020015151613a1b565b6040516001600160a01b0386169085156108fc029086906000818181858888f19350505050158015613912573d6000803e3d6000fd5b50506040805160208101909152600081525b60018055949350505050565b60005b600d54811015613a0c576000600d828154811061394c57fe5b6000918252602090912060029091020180546001820154604051636eb1769f60e11b81529293506001600160a01b039182169263dd62ed3e92613996923092911690600401615589565b60206040518083038186803b1580156139ae57600080fd5b505afa1580156139c2573d6000803e3d6000fd5b505050506040513d601f19601f820116820180604052508101906139e69190615007565b15613a035760405162461bcd60e51b8152600401610afc9061580b565b50600101613933565b50613a19600d6000614a8a565b565b6000613a25613d51565b6001600160a01b031663751c1e33846040518263ffffffff1660e01b8152600401613a509190615627565b60206040518083038186803b158015613a6857600080fd5b505afa158015613a7c573d6000803e3d6000fd5b505050506040513d601f19601f82011682018060405250810190613aa09190615007565b604051630301bdab60e31b815290915060009073__$5daae515ac26c421a7f982ec8dcf175676$__9063180ded5890613ae0906003908790600401615af5565b60206040518083038186803b158015613af857600080fd5b505af4158015613b0c573d6000803e3d6000fd5b505050506040513d601f19601f82011682018060405250810190613b309190615007565b905080821115613b525760405162461bcd60e51b8152600401610afc90615a58565b604051631b45b56960e11b815273__$5daae515ac26c421a7f982ec8dcf175676$__9063368b6ad290613b8c906003908690600401615af5565b60006040518083038186803b158015613ba457600080fd5b505af4158015613bb8573d6000803e3d6000fd5b505050507f999fc13182c1dc368ce43440c7fdfa39ad23e5f44ed5b242a2d2abc049d0a1f78242604051613bed929190615af5565b60405180910390a150505050565b6001600160a01b038216613c215760405162461bcd60e51b8152600401610afc906156f7565b80613c3e5760405162461bcd60e51b8152600401610afc90615842565b60018055600280546001600160a01b0319166001600160a01b038481169190911791829055604051637cdca54d60e11b815291169063f9b94a9a90613c899084903090600401615630565b600060405180830381600087803b158015613ca357600080fd5b505af1158015613cb7573d6000803e3d6000fd5b50506040516301e88e6160e71b815273__$5daae515ac26c421a7f982ec8dcf175676$__925063f44730809150613cf5906003908590600401615af5565b60006040518083038186803b158015613d0d57600080fd5b505af4158015613d21573d6000803e3d6000fd5b505050505050565b613d31613eac565b613d396142bf565b613d416143b4565b613d49614643565b613a19614842565b6000610874604051602001611dec90615525565b6060613dba826040518060400160405280602081526020017f5361666545524332303a206c6f772d6c6576656c2063616c6c206661696c6564815250856001600160a01b03166149529092919063ffffffff16565b80519091501561318b5780806020019051810190613dd89190614fcf565b61318b5760405162461bcd60e51b8152600401610afc90615a0e565b613e06604051602001611dec9061555c565b6001600160a01b0316816001600160a01b03161415613e2457613ea8565b600d80546001810182556000919091526002027fd7b6990105719101dabeb77144f2a3385c8033acd3af97e9423a695e81ad1eb5810180546001600160a01b038086166001600160a01b0319928316179092557fd7b6990105719101dabeb77144f2a3385c8033acd3af97e9423a695e81ad1eb69092018054918416919092161790555b5050565b604051630b12eeb360e31b815273__$5daae515ac26c421a7f982ec8dcf175676$__9063eced5d6990600390630b0158bd60e41b9060009083908690635897759890613efc908490600401615627565b60206040518083038186803b158015613f1457600080fd5b505af4158015613f28573d6000803e3d6000fd5b505050506040513d601f19601f82011682018060405250810190613f4c9190615007565b60010160020281613f5957fe5b046040518563ffffffff1660e01b8152600401613f799493929190615bb2565b60006040518083038186803b158015613f9157600080fd5b505af4158015613fa5573d6000803e3d6000fd5b505060405163eced5d6960e01b815273__$5daae515ac26c421a7f982ec8dcf175676$__925063eced5d699150613ff090600390633d23472d60e01b90600190600090600401615bb2565b60006040518083038186803b15801561400857600080fd5b505af415801561401c573d6000803e3d6000fd5b505060405163eced5d6960e01b815273__$5daae515ac26c421a7f982ec8dcf175676$__925063eced5d699150614067906003906314ad4cad60e21b90600190600090600401615bb2565b60006040518083038186803b15801561407f57600080fd5b505af4158015614093573d6000803e3d6000fd5b5050604080516000808252602082019283905263d3dcb44560e01b90925273__$5daae515ac26c421a7f982ec8dcf175676$__935063d3dcb44592506140e991600391630b0158bd60e41b919060248101615bd9565b60006040518083038186803b15801561410157600080fd5b505af4158015614115573d6000803e3d6000fd5b50506040805160038082526080820190925260609350915060208201838036833701905050905063b0158bd060e01b8160008151811061415157fe5b6001600160e01b0319909216602092830291909101909101528051633d23472d60e01b908290600190811061418257fe5b6001600160e01b03199092166020928302919091019091015280516314ad4cad60e21b90829060029081106141b357fe5b6001600160e01b03199092166020928302919091019091015260405163d3dcb44560e01b815273__$5daae515ac26c421a7f982ec8dcf175676$__9063d3dcb4459061421490600390633d23472d60e01b9062015180908790600401615bd9565b60006040518083038186803b15801561422c57600080fd5b505af4158015614240573d6000803e3d6000fd5b505060405163d3dcb44560e01b815273__$5daae515ac26c421a7f982ec8dcf175676$__925063d3dcb445915061428c906003906314ad4cad60e21b9062015180908790600401615bd9565b60006040518083038186803b1580156142a457600080fd5b505af41580156142b8573d6000803e3d6000fd5b5050505050565b60405163eced5d6960e01b815273__$5daae515ac26c421a7f982ec8dcf175676$__9063eced5d699061430690600390637cea91cb60e01b90600190600090600401615bb2565b60006040518083038186803b15801561431e57600080fd5b505af4158015614332573d6000803e3d6000fd5b5050604080516000808252602082019283905263d3dcb44560e01b90925273__$5daae515ac26c421a7f982ec8dcf175676$__935063d3dcb445925061438891600391637cea91cb60e01b919060248101615bd9565b60006040518083038186803b1580156143a057600080fd5b505af41580156115d1573d6000803e3d6000fd5b60405163eced5d6960e01b815273__$5daae515ac26c421a7f982ec8dcf175676$__9063eced5d69906143fb906003906344eed35d60e01b90600090600190600401615bb2565b60006040518083038186803b15801561441357600080fd5b505af4158015614427573d6000803e3d6000fd5b5050604051630b12eeb360e31b815273__$5daae515ac26c421a7f982ec8dcf175676$__925063eced5d699150600390634733217960e01b906000908390869063589775989061447b908490600401615627565b60206040518083038186803b15801561449357600080fd5b505af41580156144a7573d6000803e3d6000fd5b505050506040513d601f19601f820116820180604052508101906144cb9190615007565b600101600202816144d857fe5b046040518563ffffffff1660e01b81526004016144f89493929190615bb2565b60006040518083038186803b15801561451057600080fd5b505af4158015614524573d6000803e3d6000fd5b5050604080516000808252602082019283905263d3dcb44560e01b90925273__$5daae515ac26c421a7f982ec8dcf175676$__935063d3dcb445925061457a916003916344eed35d60e01b919060248101615bd9565b60006040518083038186803b15801561459257600080fd5b505af41580156145a6573d6000803e3d6000fd5b5050604080516001808252818301909252606093509150602080830190803683370190505090506344eed35d60e01b816000815181106145e257fe5b6001600160e01b03199092166020928302919091019091015260405163d3dcb44560e01b815273__$5daae515ac26c421a7f982ec8dcf175676$__9063d3dcb4459061428c90600390634733217960e01b9062015180908790600401615bd9565b60405163eced5d6960e01b815273__$5daae515ac26c421a7f982ec8dcf175676$__9063eced5d699061468a90600390638f841f9960e01b90600190600090600401615bb2565b60006040518083038186803b1580156146a257600080fd5b505af41580156146b6573d6000803e3d6000fd5b505060405163eced5d6960e01b815273__$5daae515ac26c421a7f982ec8dcf175676$__925063eced5d69915061470190600390632914d86360e11b90600190600090600401615bb2565b60006040518083038186803b15801561471957600080fd5b505af415801561472d573d6000803e3d6000fd5b50506040805160018082528183019092526060935091506020808301908036833701905050905063b0158bd060e01b8160008151811061476957fe5b6001600160e01b03199092166020928302919091019091015260405163d3dcb44560e01b815273__$5daae515ac26c421a7f982ec8dcf175676$__9063d3dcb445906147ca90600390638f841f9960e01b9062015180908790600401615bd9565b60006040518083038186803b1580156147e257600080fd5b505af41580156147f6573d6000803e3d6000fd5b505060405163d3dcb44560e01b815273__$5daae515ac26c421a7f982ec8dcf175676$__925063d3dcb445915061428c90600390632914d86360e11b9062015180908790600401615bd9565b60405163eced5d6960e01b815273__$5daae515ac26c421a7f982ec8dcf175676$__9063eced5d6990614889906003906355f2f63760e01b90600190600090600401615bb2565b60006040518083038186803b1580156148a157600080fd5b505af41580156148b5573d6000803e3d6000fd5b50506040805160028082526060808301845294509092509060208301908036833701905050905063b0158bd060e01b816000815181106148f157fe5b6001600160e01b03199092166020928302919091019091015260405163d3dcb44560e01b815273__$5daae515ac26c421a7f982ec8dcf175676$__9063d3dcb4459061428c906003906355f2f63760e01b9062015180908790600401615bd9565b6060611b188484600085606061496785614a20565b6149835760405162461bcd60e51b8152600401610afc90615987565b60006060866001600160a01b031685876040516149a09190615509565b60006040518083038185875af1925050503d80600081146149dd576040519150601f19603f3d011682016040523d82523d6000602084013e6149e2565b606091505b509150915081156149f6579150611b189050565b805115614a065780518082602001fd5b8360405162461bcd60e51b8152600401610afc919061565c565b6000813f7fc5d2460186f7233c927e7db2dcc703c0e500b653ca82273b7bfad8045d85a470818114801590611b18575050151592915050565b604080518082019091526000808252602082015290565b604051806040016040528060008152602001606081525090565b5080546000825560020290600052602060002090810190614aab9190614aae565b50565b61087791905b80821115614adf5780546001600160a01b031990811682556001820180549091169055600201614ab4565b5090565b600082601f830112614af3578081fd5b8135614b06614b0182615ccb565b615ca5565b818152915060208083019084810181840286018201871015614b2757600080fd5b60005b84811015614b4f578135614b3d81615d39565b84529282019290820190600101614b2a565b505050505092915050565b600082601f830112614b6a578081fd5b8135614b78614b0182615ccb565b818152915060208083019084810160005b84811015614b4f57614ba0888484358a0101614c10565b84529282019290820190600101614b89565b600082601f830112614bc2578081fd5b8135614bd0614b0182615ccb565b818152915060208083019084810181840286018201871015614bf157600080fd5b60005b84811015614b4f57813584529282019290820190600101614bf4565b600082601f830112614c20578081fd5b8135614c2e614b0182615cea565b9150808252836020828501011115614c4557600080fd5b8060208401602084013760009082016020015292915050565b600060408284031215614c6f578081fd5b614c796040615ca5565b905081356001600160401b0380821115614c9257600080fd5b614c9e85838601614c10565b83526020840135915080821115614cb457600080fd5b50614cc184828501614b5a565b60208301525092915050565b600060208284031215614cde578081fd5b8135611baf81615d39565b600060208284031215614cfa578081fd5b8151611baf81615d39565b60008060408385031215614d17578081fd5b8235614d2281615d39565b946020939093013593505050565b60008060408385031215614d42578182fd5b8251614d4d81615d39565b6020939093015192949293505050565b600080600060608486031215614d71578081fd5b8335614d7c81615d39565b92506020840135915060408401356001600160401b03811115614d9d578182fd5b614da986828701614c5e565b9150509250925092565b600080600060608486031215614dc7578081fd5b8335614dd281615d39565b92506020840135614de281615d39565b929592945050506040919091013590565b60008060008060808587031215614e08578182fd5b8435614e1381615d39565b93506020850135614e2381615d39565b92506040850135915060608501356001600160401b03811115614e44578182fd5b614e5087828801614c5e565b91505092959194509250565b60008060408385031215614d17578182fd5b60008060408385031215614e80578182fd5b8235614e8b81615d39565b915060208301356001600160401b03811115614ea5578182fd5b614eb185828601614c5e565b9150509250929050565b600080600060608486031215614ecf578081fd5b83356001600160401b0380821115614ee5578283fd5b614ef187838801614ae3565b94506020860135915080821115614f06578283fd5b614f1287838801614bb2565b93506040860135915080821115614f27578283fd5b50614da986828701614b5a565b60008060008060808587031215614f49578182fd5b84356001600160401b0380821115614f5f578384fd5b614f6b88838901614ae3565b95506020870135915080821115614f80578384fd5b614f8c88838901614bb2565b94506040870135915080821115614fa1578384fd5b614fad88838901614b5a565b93506060870135915080821115614fc2578283fd5b50614e5087828801614c5e565b600060208284031215614fe0578081fd5b81518015158114611baf578182fd5b600060208284031215615000578081fd5b5035919050565b600060208284031215615018578081fd5b5051919050565b60008060408385031215615031578182fd5b8235915060208301356001600160401b0381111561504d578182fd5b614eb185828601614b5a565b6000806040838503121561506b578182fd5b8235915060208301356001600160401b03811115615087578182fd5b614eb185828601614c10565b6000602082840312156150a4578081fd5b8135611baf81615d4e565b600080604083850312156150c1578182fd5b82516150cc81615d4e565b60208401519092506001600160401b038111156150e7578182fd5b80840185601f8201126150f8578283fd5b80519150615108614b0183615cea565b82815286602084840101111561511c578384fd5b61512d836020830160208501615d0d565b8093505050509250929050565b600080600080600060a08688031215615151578283fd5b853561515c81615d39565b94506020868101359450604087013561517481615d39565b935060608701356001600160401b038082111561518f578384fd5b61519b8a838b01614ae3565b945060808901359150808211156151b0578384fd5b5080880189601f8201126151c2578384fd5b803591506151d2614b0183615ccb565b82815283810190828501858502840186018d10156151ee578687fd5b8693505b848410156152105780358352600193909301929185019185016151f2565b5080955050505050509295509295909350565b600060208284031215615234578081fd5b81356001600160401b03811115615249578182fd5b611b1884828501614c5e565b6000815180845260208085019450808401835b8381101561528e5781516001600160e01b03191687529582019590820190600101615268565b509495945050505050565b80516000906020808401835b8381101561528e578151875295820195908201906001016152a5565b600081518084526152d9816020860160208601615d0d565b601f01601f19169290920160200192915050565b600081516152ff818560208601615d0d565b9290920192915050565b6001600160f81b0319958616815293909416600184015260609190911b6001600160601b031916600283015260168201526001600160e01b0319919091166036820152603a0190565b6001600160f81b031996871681529490951660018501526001600160601b0319606093841b8116600286015260168501929092526001600160e01b031916603684015292901b909116603a820152604e0190565b6001600160f81b031997881681529590961660018601526001600160601b0319606094851b8116600287015260168601939093526001600160e01b031991909116603685015290911b16603a820152604e810191909152606e0190565b6001600160f81b031998891681529690971660018701526001600160601b0319606095861b8116600288015260168701949094526001600160e01b0319929092166036860152831b8216603a85015290911b16604e820152606281019190915260820190565b6001600160f81b031989811682528816600180830191909152606088901b6001600160601b0319166002830152601682018790526001600160e01b0319861660368301528451600091603a8401916020808901855b838110156154e25781516001600160a01b03168652948201949082019084016154be565b50505050506154fa6154f48287615299565b856152ed565b9b9a5050505050505050505050565b6000825161551b818460208701615d0d565b9190910192915050565b6c070726963652d666565642d763609c1b8152600d0190565b71077616c6c65742d72656769737472792d76360741b815260120190565b6c074782d72656c617965722d763609c1b8152600d0190565b6001600160a01b0391909116815260200190565b6001600160a01b0392831681529116602082015260400190565b6001600160a01b03929092168252602082015260400190565b6000602080830181845280855180835260408601915060408482028701019250838701855b8281101561560f57603f198886030184526155fd8583516152c1565b945092850192908501906001016155e1565b5092979650505050505050565b901515815260200190565b90815260200190565b9182526001600160a01b0316602082015260400190565b6001600160e01b031991909116815260200190565b600060208252611baf60208301846152c1565b6020808252600f908201526e6e6f742d7570677261646561626c6560881b604082015260600190565b6020808252600e908201526d1c99595b9d1c985b9d0b58d85b1b60921b604082015260600190565b60208082526017908201527f6e6f742d7369676e65642d62792d7769746e6573736573000000000000000000604082015260600190565b602080825260139082015272696e76616c69642d656e732d6761746577617960681b604082015260600190565b60208082526018908201527f6d6f72652d7369676e6174757265732d72657175697265640000000000000000604082015260600190565b6020808252600f908201526e1b9bdd0b5a5b9a5d1a585b1a5e9959608a1b604082015260600190565b602080825260149082015273195e1d195c9b985b0b58d85b1b0b59985a5b195960621b604082015260600190565b6020808252601290820152716e6f742d656e6f7567682d62616c616e636560701b604082015260600190565b602080825260139082015272185b1c9958591e4b5a5b9a5d1a585b1a5e9959606a1b604082015260600190565b60208082526018908201527f617070726f7665642d65726332302d6e6f742d7370656e740000000000000000604082015260600190565b6020808252600d908201526c1a5b9d985b1a590b5b1858995b609a1b604082015260600190565b60208082526017908201527f646966666572656e742d706172616d2d6c656e67746873000000000000000000604082015260600190565b6020808252600a90820152691b9bdd0b5b1bd8dad95960b21b604082015260600190565b6020808252601a908201527f73656375726974792d706572696f642d6e6f742d706173736564000000000000604082015260600190565b60208082526017908201527f646966666572656e742d706172616d732d6c656e677468000000000000000000604082015260600190565b6020808252601390820152723737ba16b9b4b3b732b216b13c96b7bbb732b960691b604082015260600190565b6020808252600e908201526d1b9bdd0b5c9959da5cdd195c995960921b604082015260600190565b6020808252601d908201527f416464726573733a2063616c6c20746f206e6f6e2d636f6e7472616374000000604082015260600190565b6020808252600e908201526d185b1c9958591e4b5b1bd8dad95960921b604082015260600190565b6020808252600e908201526d1a5b9d985b1a590b5d185c99d95d60921b604082015260600190565b6020808252602a908201527f5361666545524332303a204552433230206f7065726174696f6e20646964206e6040820152691bdd081cdd58d8d9595960b21b606082015260800190565b60208082526017908201527f7472616e736665722d6c696d69742d6578636565646564000000000000000000604082015260600190565b6020808252601d908201527f61742d6c656173742d6f6e652d7769746e6573732d7265717569726564000000604082015260600190565b9283526001600160a01b03919091166020830152604082015260600190565b9182521515602082015260400190565b918252602082015260400190565b600060608201858352602085818501526060604085015281855180845260808601915060808382028701019350828701855b82811015615b6357607f19888703018452615b518683516152c1565b95509284019290840190600101615b35565b50939998505050505050505050565b600084825283602083015260606040830152615b9160608301846152c1565b95945050505050565b9182526001600160e01b031916602082015260400190565b9384526001600160e01b031992909216602084015215156040830152606082015260800190565b600085825263ffffffff60e01b8516602083015283604083015260806060830152615c076080830184615255565b9695505050505050565b60208082528251828201528281015160408084015280516060840181905260009291820190839060808601905b80831015615c685783516001600160e01b0319168252928401926001929092019190840190615c3e565b509695505050505050565b8151151581526020918201519181019190915260400190565b600083825260406020830152611b1860408301846152c1565b6040518181016001600160401b0381118282101715615cc357600080fd5b604052919050565b60006001600160401b03821115615ce0578081fd5b5060209081020190565b60006001600160401b03821115615cff578081fd5b50601f01601f191660200190565b60005b83811015615d28578181015183820152602001615d10565b838111156115d15750506000910152565b6001600160a01b0381168114614aab57600080fd5b6001600160e01b031981168114614aab57600080fdfec5f16f0fcc639fa48a6947836d9850f504798523bf8c9a3a87d5876cf622bcf7a26469706673582212204f174edefdbbbcb89387339845c581d0e2e7fc8318f5dd2be5e8c02977cdbdb664736f6c63430006080033",
  "libraries": {
    "Storage": "0xb42169667957e5517740b7f64ab140ac857f959b"
  },
  "devdoc": {
    "methods": {
      "addWitnessHash(address,bytes32)": {
        "returns": {
          "_0": "a hash used to generate signature to properly call 'addWitness()'"
        }
      },
      "areValidWitnessSignatures(bytes32,bytes[])": {
        "params": {
          "hash": "hashed message of calling a method",
          "signatures": "signed results of hash by witnesses"
        }
      },
      "execute(address[],uint256[],bytes[],(bytes,bytes[]))": {
        "params": {
          "data": "methodID + args for each execution",
          "targets": "contract addresses to be executed for each execution",
          "values": "amount of ETH for each execution"
        }
      },
      "executeHash(address[],uint256[],bytes[])": {
        "returns": {
          "_0": "a hash used to generate signature to properly call 'execute()'"
        }
      },
      "isValidOwnerSignature(bytes32,bytes)": {
        "params": {
          "hash": "hashed message of calling a method",
          "signature": "signed result of hash by the owner"
        }
      },
      "lockHash()": {
        "returns": {
          "_0": "a hash used to generate signature to properly call 'lock()'"
        }
      },
      "removeWitnessHash(address)": {
        "returns": {
          "_0": "a hash used to generate signature to properly call 'removeWitness()'"
        }
      },
      "transferERC20(address,address,uint256,(bytes,bytes[]))": {
        "params": {
          "to": "receiver address",
          "token": "ERC20 address",
          "value": "amount of ERC20"
        }
      },
      "transferERC20Hash(address,address,uint256)": {
        "returns": {
          "_0": "a hash used to generate signature to properly call 'transferERC20()'"
        }
      },
      "transferETH(address,uint256,(bytes,bytes[]))": {
        "params": {
          "to": "receiver address",
          "value": "amount of ETH"
        }
      },
      "transferETHHash(address,uint256)": {
        "returns": {
          "_0": "a hash used to generate signature to properly call 'transferETH()'"
        }
      },
      "transferOwnershipHash(address)": {
        "returns": {
          "_0": "a hash used to generate signature to properly call 'transferOwnership()'"
        }
      },
      "unlockHash()": {
        "returns": {
          "_0": "a hash used to generate signature to properly call 'unlock()'"
        }
      },
      "upgradeHash(address)": {
        "returns": {
          "_0": "a hash used to generate signature to properly call 'upgrade()'"
        }
      }
    }
  },
  "userdoc": {
    "methods": {
      "addWitness(address,bytes32,(bytes,bytes[]))": {
        "notice": "Adds a new owner     * Signatures of the owner needed"
      },
      "areValidWitnessSignatures(bytes32,bytes[])": {
        "notice": "Checks if all signatures were signed by a subset of distinct witnesses"
      },
      "execute(address[],uint256[],bytes[],(bytes,bytes[]))": {
        "notice": "Executes arbitrary contract functions If 'ERC20.approve()'s were called in the batched executions, then all the amounts of the approved tokens need to be spent by the end of the call"
      },
      "initialize(address,bytes32,address,address[],bytes32[])": {
        "notice": "Initializes the wallet"
      },
      "isValidOwnerSignature(bytes32,bytes)": {
        "notice": "Checks if the signature was signed by the owner"
      },
      "isValidSignature(bytes32,bytes)": {
        "notice": "If the signature was signed by the owner it returns 0x1626ba7e, otherwise 0xffffffff     * bytes4(keccak256(\"isValidSignature(bytes32,bytes)\") = 0x1626ba7e"
      },
      "lock((bytes,bytes[]))": {
        "notice": "Locks the wallet     * Signature of at least one of the witnesses required"
      },
      "minimumTransferLimitInUSD()": {
        "notice": "How much an owner can spend with 0 witness     * For each signature of a witness is offered, limit is multiplied by 10"
      },
      "removeWitness(address,(bytes,bytes[]))": {
        "notice": "Removes an existing owner     * Signature of the owner needed"
      },
      "transferCapacityInUSD(uint256)": {
        "notice": "Transfer capacity available in USD     * 10**18 = 1 USD"
      },
      "transferERC20(address,address,uint256,(bytes,bytes[]))": {
        "notice": "Transfers 'value' amount of ERC20 'token' to 'to'"
      },
      "transferETH(address,uint256,(bytes,bytes[]))": {
        "notice": "Transfers 'value' amount of ETH to 'to'"
      },
      "transferOwnership(address,(bytes,bytes[]))": {
        "notice": "Transfers the ownership to a new owner     * Signatures of '((n + 1) * 2) / 3' required where 'n' is the number of the witnesses"
      },
      "unlock((bytes,bytes[]))": {
        "notice": "Unlocks the wallet     * Signatures of '((n + 1) * 2) / 3' required where 'n' is the number of the witnesses Also, 24 hours needs to have passed after the lock has been called"
      },
      "upgrade(address,(bytes,bytes[]))": {
        "notice": "Upgrades to a new implementation     * Signature of the owner required"
      }
    }
  },
  "storageLayout": {
    "storage": [
      {
        "astId": 5903,
        "contract": "contracts/wallet/Wallet.sol:Wallet",
        "label": "_initialized",
        "offset": 0,
        "slot": "0",
        "type": "t_bool"
      },
      {
        "astId": 5905,
        "contract": "contracts/wallet/Wallet.sol:Wallet",
        "label": "_initializing",
        "offset": 1,
        "slot": "0",
        "type": "t_bool"
      },
      {
        "astId": 5907,
        "contract": "contracts/wallet/Wallet.sol:Wallet",
        "label": "_status",
        "offset": 0,
        "slot": "1",
        "type": "t_uint256"
      },
      {
        "astId": 5909,
        "contract": "contracts/wallet/Wallet.sol:Wallet",
        "label": "_ensGateway",
        "offset": 0,
        "slot": "2",
        "type": "t_contract(IENSGateway)2926"
      },
      {
        "astId": 5911,
        "contract": "contracts/wallet/Wallet.sol:Wallet",
        "label": "_storage",
        "offset": 0,
        "slot": "3",
        "type": "t_struct(Data)4539_storage"
      },
      {
        "astId": 6439,
        "contract": "contracts/wallet/Wallet.sol:Wallet",
        "label": "_approvals",
        "offset": 0,
        "slot": "13",
        "type": "t_array(t_struct(ERC20Approval)6436_storage)dyn_storage"
      }
    ],
    "types": {
      "t_address": {
        "encoding": "inplace",
        "label": "address",
        "numberOfBytes": "20"
      },
      "t_array(t_address)dyn_storage": {
        "base": "t_address",
        "encoding": "dynamic_array",
        "label": "address[]",
        "numberOfBytes": "32"
      },
      "t_array(t_bytes4)dyn_storage": {
        "base": "t_bytes4",
        "encoding": "dynamic_array",
        "label": "bytes4[]",
        "numberOfBytes": "32"
      },
      "t_array(t_struct(ERC20Approval)6436_storage)dyn_storage": {
        "base": "t_struct(ERC20Approval)6436_storage",
        "encoding": "dynamic_array",
        "label": "struct Executable.ERC20Approval[]",
        "numberOfBytes": "32"
      },
      "t_array(t_struct(Spending)4508_storage)dyn_storage": {
        "base": "t_struct(Spending)4508_storage",
        "encoding": "dynamic_array",
        "label": "struct Storage.Spending[]",
        "numberOfBytes": "32"
      },
      "t_bool": {
        "encoding": "inplace",
        "label": "bool",
        "numberOfBytes": "1"
      },
      "t_bytes32": {
        "encoding": "inplace",
        "label": "bytes32",
        "numberOfBytes": "32"
      },
      "t_bytes4": {
        "encoding": "inplace",
        "label": "bytes4",
        "numberOfBytes": "4"
      },
      "t_contract(IENSGateway)2926": {
        "encoding": "inplace",
        "label": "contract IENSGateway",
        "numberOfBytes": "20"
      },
      "t_mapping(t_address,t_bytes32)": {
        "encoding": "mapping",
        "key": "t_address",
        "label": "mapping(address => bytes32)",
        "numberOfBytes": "32",
        "value": "t_bytes32"
      },
      "t_mapping(t_bytes4,t_struct(SecurityPeriod)4503_storage)": {
        "encoding": "mapping",
        "key": "t_bytes4",
        "label": "mapping(bytes4 => struct Storage.SecurityPeriod)",
        "numberOfBytes": "32",
        "value": "t_struct(SecurityPeriod)4503_storage"
      },
      "t_mapping(t_bytes4,t_struct(SigningRequirements)4497_storage)": {
        "encoding": "mapping",
        "key": "t_bytes4",
        "label": "mapping(bytes4 => struct Storage.SigningRequirements)",
        "numberOfBytes": "32",
        "value": "t_struct(SigningRequirements)4497_storage"
      },
      "t_mapping(t_bytes4,t_uint256)": {
        "encoding": "mapping",
        "key": "t_bytes4",
        "label": "mapping(bytes4 => uint256)",
        "numberOfBytes": "32",
        "value": "t_uint256"
      },
      "t_struct(Data)4539_storage": {
        "encoding": "inplace",
        "label": "struct Storage.Data",
        "members": [
          {
            "astId": 4510,
            "contract": "contracts/wallet/Wallet.sol:Wallet",
            "label": "_nonce",
            "offset": 0,
            "slot": "0",
            "type": "t_uint256"
          },
          {
            "astId": 4514,
            "contract": "contracts/wallet/Wallet.sol:Wallet",
            "label": "_signingRequirements",
            "offset": 0,
            "slot": "1",
            "type": "t_mapping(t_bytes4,t_struct(SigningRequirements)4497_storage)"
          },
          {
            "astId": 4518,
            "contract": "contracts/wallet/Wallet.sol:Wallet",
            "label": "_securityPeriods",
            "offset": 0,
            "slot": "2",
            "type": "t_mapping(t_bytes4,t_struct(SecurityPeriod)4503_storage)"
          },
          {
            "astId": 4522,
            "contract": "contracts/wallet/Wallet.sol:Wallet",
            "label": "_lastExecutionTime",
            "offset": 0,
            "slot": "3",
            "type": "t_mapping(t_bytes4,t_uint256)"
          },
          {
            "astId": 4524,
            "contract": "contracts/wallet/Wallet.sol:Wallet",
            "label": "_label",
            "offset": 0,
            "slot": "4",
            "type": "t_bytes32"
          },
          {
            "astId": 4526,
            "contract": "contracts/wallet/Wallet.sol:Wallet",
            "label": "_owner",
            "offset": 0,
            "slot": "5",
            "type": "t_address"
          },
          {
            "astId": 4530,
            "contract": "contracts/wallet/Wallet.sol:Wallet",
            "label": "_witnessNames",
            "offset": 0,
            "slot": "6",
            "type": "t_mapping(t_address,t_bytes32)"
          },
          {
            "astId": 4533,
            "contract": "contracts/wallet/Wallet.sol:Wallet",
            "label": "_witnesses",
            "offset": 0,
            "slot": "7",
            "type": "t_array(t_address)dyn_storage"
          },
          {
            "astId": 4535,
            "contract": "contracts/wallet/Wallet.sol:Wallet",
            "label": "_locked",
            "offset": 0,
            "slot": "8",
            "type": "t_bool"
          },
          {
            "astId": 4538,
            "contract": "contracts/wallet/Wallet.sol:Wallet",
            "label": "_spending",
            "offset": 0,
            "slot": "9",
            "type": "t_array(t_struct(Spending)4508_storage)dyn_storage"
          }
        ],
        "numberOfBytes": "320"
      },
      "t_struct(ERC20Approval)6436_storage": {
        "encoding": "inplace",
        "label": "struct Executable.ERC20Approval",
        "members": [
          {
            "astId": 6433,
            "contract": "contracts/wallet/Wallet.sol:Wallet",
            "label": "token",
            "offset": 0,
            "slot": "0",
            "type": "t_address"
          },
          {
            "astId": 6435,
            "contract": "contracts/wallet/Wallet.sol:Wallet",
            "label": "spender",
            "offset": 0,
            "slot": "1",
            "type": "t_address"
          }
        ],
        "numberOfBytes": "64"
      },
      "t_struct(SecurityPeriod)4503_storage": {
        "encoding": "inplace",
        "label": "struct Storage.SecurityPeriod",
        "members": [
          {
            "astId": 4499,
            "contract": "contracts/wallet/Wallet.sol:Wallet",
            "label": "time",
            "offset": 0,
            "slot": "0",
            "type": "t_uint256"
          },
          {
            "astId": 4502,
            "contract": "contracts/wallet/Wallet.sol:Wallet",
            "label": "dependencies",
            "offset": 0,
            "slot": "1",
            "type": "t_array(t_bytes4)dyn_storage"
          }
        ],
        "numberOfBytes": "64"
      },
      "t_struct(SigningRequirements)4497_storage": {
        "encoding": "inplace",
        "label": "struct Storage.SigningRequirements",
        "members": [
          {
            "astId": 4494,
            "contract": "contracts/wallet/Wallet.sol:Wallet",
            "label": "owner",
            "offset": 0,
            "slot": "0",
            "type": "t_bool"
          },
          {
            "astId": 4496,
            "contract": "contracts/wallet/Wallet.sol:Wallet",
            "label": "witnesses",
            "offset": 0,
            "slot": "1",
            "type": "t_uint256"
          }
        ],
        "numberOfBytes": "64"
      },
      "t_struct(Spending)4508_storage": {
        "encoding": "inplace",
        "label": "struct Storage.Spending",
        "members": [
          {
            "astId": 4505,
            "contract": "contracts/wallet/Wallet.sol:Wallet",
            "label": "valueInUSD",
            "offset": 0,
            "slot": "0",
            "type": "t_uint256"
          },
          {
            "astId": 4507,
            "contract": "contracts/wallet/Wallet.sol:Wallet",
            "label": "timestamp",
            "offset": 0,
            "slot": "1",
            "type": "t_uint256"
          }
        ],
        "numberOfBytes": "64"
      },
      "t_uint256": {
        "encoding": "inplace",
        "label": "uint256",
        "numberOfBytes": "32"
      }
    }
  },
  "gasEstimates": {
    "creation": {
      "codeDepositCost": "4798800",
      "executionCost": "5649",
      "totalCost": "4804449"
    },
    "external": {
      "addWitness(address,bytes32,(bytes,bytes[]))": "infinite",
      "addWitnessHash(address,bytes32)": "infinite",
      "areValidWitnessSignatures(bytes32,bytes[])": "infinite",
      "cumulativeSpendingInUSD(uint256)": "infinite",
      "execute(address[],uint256[],bytes[],(bytes,bytes[]))": "infinite",
      "executeHash(address[],uint256[],bytes[])": "infinite",
      "implementation()": "infinite",
      "initialize(address,bytes32,address,address[],bytes32[])": "infinite",
      "initialized()": "1153",
      "isValidOwnerSignature(bytes32,bytes)": "infinite",
      "isValidSignature(bytes32,bytes)": "infinite",
      "label()": "infinite",
      "lastExecutionTime(bytes4)": "infinite",
      "lock((bytes,bytes[]))": "infinite",
      "lockHash()": "infinite",
      "locked()": "infinite",
      "minimumTransferLimitInUSD()": "infinite",
      "nonce()": "infinite",
      "numberOfWitnesses()": "infinite",
      "owner()": "infinite",
      "proxiableUUID()": "infinite",
      "removeWitness(address,(bytes,bytes[]))": "infinite",
      "removeWitnessHash(address)": "infinite",
      "resolveENS(bytes32)": "infinite",
      "securityPeriod(bytes4)": "infinite",
      "signingRequirements(bytes4)": "infinite",
      "transferCapacityInUSD(uint256)": "infinite",
      "transferCapacityResetPeriod()": "infinite",
      "transferERC20(address,address,uint256,(bytes,bytes[]))": "infinite",
      "transferERC20Hash(address,address,uint256)": "infinite",
      "transferETH(address,uint256,(bytes,bytes[]))": "infinite",
      "transferETHHash(address,uint256)": "infinite",
      "transferOwnership(address,(bytes,bytes[]))": "infinite",
      "transferOwnershipHash(address)": "infinite",
      "unlock((bytes,bytes[]))": "infinite",
      "unlockHash()": "infinite",
      "upgrade(address,(bytes,bytes[]))": "infinite",
      "upgradeHash(address)": "infinite",
      "witnessNames(address)": "infinite",
      "witnesses(uint256)": "infinite"
    },
    "internal": {
      "_initialize()": "infinite"
    }
  }
}